{
  "_format": "hh-sol-artifact-1",
  "contractName": "BigDataContract",
  "sourceName": "contracts/test/BigDataContract.sol",
  "abi": [
    {
      "anonymous": false,
      "inputs": [],
      "name": "Written",
      "type": "event"
    },
    {
      "inputs": [],
      "name": "data",
      "outputs": [
        {
          "internalType": "bytes",
          "name": "",
          "type": "bytes"
        }
      ],
      "stateMutability": "view",
      "type": "function"
    },
    {
      "inputs": [
        {
          "internalType": "bytes",
          "name": "newData",
          "type": "bytes"
        }
      ],
      "name": "writeData",
      "outputs": [
        {
          "internalType": "bytes",
          "name": "",
          "type": "bytes"
        }
      ],
      "stateMutability": "nonpayable",
      "type": "function"
    }
  ],
  "bytecode": "0x608060405234801561001057600080fd5b5061050d806100206000396000f3fe608060405234801561001057600080fd5b50600436106100365760003560e01c806373d4a13a1461003b578063f275d3ec14610059575b600080fd5b61004361006c565b604051610050919061020d565b60405180910390f35b610043610067366004610256565b6100fa565b6000805461007990610307565b80601f01602080910402602001604051908101604052809291908181526020018280546100a590610307565b80156100f25780601f106100c7576101008083540402835291602001916100f2565b820191906000526020600020905b8154815290600101906020018083116100d557829003601f168201915b505050505081565b6060600082604051602001610110929190610341565b6040516020818303038152906040526000908161012d9190610417565b506040517f6cf6fd6d80b7dfd898e622a3e48e8ab90bf067accc098070fd9ae2dba15f493f90600090a16000805461016490610307565b80601f016020809104026020016040519081016040528092919081815260200182805461019090610307565b80156101dd5780601f106101b2576101008083540402835291602001916101dd565b820191906000526020600020905b8154815290600101906020018083116101c057829003601f168201915b50505050509050919050565b60005b838110156102045781810151838201526020016101ec565b50506000910152565b602081526000825180602084015261022c8160408501602087016101e9565b601f01601f19169190910160400192915050565b634e487b7160e01b600052604160045260246000fd5b60006020828403121561026857600080fd5b813567ffffffffffffffff8082111561028057600080fd5b818401915084601f83011261029457600080fd5b8135818111156102a6576102a6610240565b604051601f8201601f19908116603f011681019083821181831017156102ce576102ce610240565b816040528281528760208487010111156102e757600080fd5b826020860160208301376000928101602001929092525095945050505050565b600181811c9082168061031b57607f821691505b60208210810361033b57634e487b7160e01b600052602260045260246000fd5b50919050565b600080845461034f81610307565b60018281168015610367576001811461037c576103ab565b60ff19841687528215158302870194506103ab565b8860005260208060002060005b858110156103a25781548a820152908401908201610389565b50505082870194505b5050505083516103bf8183602088016101e9565b01949350505050565b601f82111561041257600081815260208120601f850160051c810160208610156103ef5750805b601f850160051c820191505b8181101561040e578281556001016103fb565b5050505b505050565b815167ffffffffffffffff81111561043157610431610240565b6104458161043f8454610307565b846103c8565b602080601f83116001811461047a57600084156104625750858301515b600019600386901b1c1916600185901b17855561040e565b600085815260208120601f198616915b828110156104a95788860151825594840194600190910190840161048a565b50858210156104c75787850151600019600388901b60f8161c191681555b5050505050600190811b0190555056fea2646970667358221220066615155ab5f27a9cd866f718c66bfaed325ec934c74727b8b79240e844fc5b64736f6c63430008110033",
  "linkReferences": {},
  "deployedLinkReferences": {}
}