{
  "_format": "hh-sol-artifact-1",
  "contractName": "TestWriteBlockMetadata",
  "sourceName": "test-contracts/TestWriteBlockMetadata.sol",
  "abi": [
    {
      "inputs": [],
      "name": "coinbase",
      "outputs": [
        {
          "internalType": "address",
          "name": "",
          "type": "address"
        }
      ],
      "stateMutability": "view",
      "type": "function"
    },
    {
      "inputs": [
        {
          "internalType": "uint256",
          "name": "",
          "type": "uint256"
        }
      ],
      "name": "data",
      "outputs": [
        {
          "internalType": "uint256",
          "name": "",
          "type": "uint256"
        }
      ],
      "stateMutability": "view",
      "type": "function"
    },
    {
      "inputs": [],
      "name": "init",
      "outputs": [],
      "stateMutability": "nonpayable",
      "type": "function"
    }
  ],
  "bytecode": "0x608060405234801561001057600080fd5b50610187806100206000396000f3fe608060405234801561001057600080fd5b50600436106100415760003560e01c8063a6ae0aac14610046578063e1c7392a14610076578063f0ba8440146100f6575b600080fd5b600154610059906001600160a01b031681565b6040516001600160a01b0390911681526020015b60405180910390f35b6100f46000805460018181018355828052447f290decd9548b62a8d60345a988386fc84ba6bc95484008f6362f93160ef3e56392830155825480820184554390830155825480820184554290830155825480820184554590830155825480820190935546929091019190915580546001600160a01b03191641179055565b005b610109610104366004610138565b610117565b60405190815260200161006d565b6000818154811061012757600080fd5b600091825260209091200154905081565b60006020828403121561014a57600080fd5b503591905056fea26469706673582212200950a847916ef267078b133380353b5117947fac6a936af48086ceed389149f164736f6c63430008110033",
  "linkReferences": {},
  "deployedLinkReferences": {}
}