{
  "_format": "hh-sol-artifact-1",
  "contractName": "Wrapper",
  "sourceName": "contracts/blade/testcontracts/Wrapper.sol",
  "abi": [
    {
      "inputs": [],
      "name": "_numberPersister",
      "outputs": [
        {
          "internalType": "contract NumberPersister",
          "name": "",
          "type": "address"
        }
      ],
      "stateMutability": "view",
      "type": "function"
    },
    {
      "inputs": [],
      "name": "getAddress",
      "outputs": [
        {
          "internalType": "address",
          "name": "",
          "type": "address"
        }
      ],
      "stateMutability": "view",
      "type": "function"
    },
    {
      "inputs": [],
      "name": "getNumber",
      "outputs": [
        {
          "internalType": "uint256",
          "name": "",
          "type": "uint256"
        }
      ],
      "stateMutability": "view",
      "type": "function"
    },
    {
      "inputs": [
        {
          "internalType": "uint256",
          "name": "_value",
          "type": "uint256"
        }
      ],
      "name": "setNumber",
      "outputs": [],
      "stateMutability": "nonpayable",
      "type": "function"
    }
  ],
  "bytecode": "0x60a06040526040516100109061004b565b604051809103906000f08015801561002c573d6000803e3d6000fd5b506001600160a01b031660805234801561004557600080fd5b50610057565b60d0806102d483390190565b6080516102506100846000396000818160530152818160aa0152818160f8015261016301526102506000f3fe608060405234801561001057600080fd5b506004361061004c5760003560e01c806338cc4831146100515780633fb5c1cb14610090578063e24b37e3146100a5578063f2c9ecd8146100cc575b600080fd5b7f00000000000000000000000000000000000000000000000000000000000000005b6040516001600160a01b0390911681526020015b60405180910390f35b6100a361009e3660046101e8565b6100e2565b005b6100737f000000000000000000000000000000000000000000000000000000000000000081565b6100d461015f565b604051908152602001610087565b604051635524107760e01b8152600481018290527f00000000000000000000000000000000000000000000000000000000000000006001600160a01b031690635524107790602401600060405180830381600087803b15801561014457600080fd5b505af1158015610158573d6000803e3d6000fd5b5050505050565b60007f00000000000000000000000000000000000000000000000000000000000000006001600160a01b0316633fa4f2456040518163ffffffff1660e01b8152600401602060405180830381865afa1580156101bf573d6000803e3d6000fd5b505050506040513d601f19601f820116820180604052508101906101e39190610201565b905090565b6000602082840312156101fa57600080fd5b5035919050565b60006020828403121561021357600080fd5b505191905056fea264697066735822122011212a8051535757d1ef445f8c97e0bb1793878543d2942cdd60f7cf7d8c67ac64736f6c63430008130033608060405234801561001057600080fd5b5060b18061001f6000396000f3fe6080604052348015600f57600080fd5b506004361060325760003560e01c80633fa4f24514603757806355241077146051575b600080fd5b603f60005481565b60405190815260200160405180910390f35b6061605c3660046063565b600055565b005b600060208284031215607457600080fd5b503591905056fea2646970667358221220b55380168bb1df5f7cd7b36dd4308b43b88a2cdd54ceccf413bca3edcfe6204664736f6c63430008130033",
  "linkReferences": {},
  "deployedLinkReferences": {}
}