{
  "_format": "hh-sol-artifact-1",
  "contractName": "AccountAbstractionInvoker",
  "sourceName": "contracts/AccountAbstractionInvoker.sol",
  "abi": [
    {
      "inputs": [],
      "stateMutability": "nonpayable",
      "type": "constructor"
    },
    {
      "inputs": [],
      "name": "DOMAIN_SEPARATOR",
      "outputs": [
        {
          "internalType": "bytes32",
          "name": "",
          "type": "bytes32"
        }
      ],
      "stateMutability": "view",
      "type": "function"
    },
    {
      "inputs": [],
      "name": "EIP712DOMAIN_TYPE",
      "outputs": [
        {
          "internalType": "bytes32",
          "name": "",
          "type": "bytes32"
        }
      ],
      "stateMutability": "view",
      "type": "function"
    },
    {
      "inputs": [],
      "name": "TRANSACTION_PAYLOAD_TYPE",
      "outputs": [
        {
          "internalType": "bytes32",
          "name": "",
          "type": "bytes32"
        }
      ],
      "stateMutability": "view",
      "type": "function"
    },
    {
      "inputs": [],
      "name": "TRANSACTION_TYPE",
      "outputs": [
        {
          "internalType": "bytes32",
          "name": "",
          "type": "bytes32"
        }
      ],
      "stateMutability": "view",
      "type": "function"
    },
    {
      "inputs": [
        {
          "components": [
            {
              "internalType": "address",
              "name": "from",
              "type": "address"
            },
            {
              "internalType": "uint256",
              "name": "nonce",
              "type": "uint256"
            },
            {
              "components": [
                {
                  "internalType": "address",
                  "name": "to",
                  "type": "address"
                },
                {
                  "internalType": "uint256",
                  "name": "value",
                  "type": "uint256"
                },
                {
                  "internalType": "uint256",
                  "name": "gasLimit",
                  "type": "uint256"
                },
                {
                  "internalType": "bytes",
                  "name": "data",
                  "type": "bytes"
                }
              ],
              "internalType": "struct AccountAbstractionInvoker.TransactionPayload[]",
              "name": "payloads",
              "type": "tuple[]"
            }
          ],
          "internalType": "struct AccountAbstractionInvoker.Transaction",
          "name": "transaction",
          "type": "tuple"
        }
      ],
      "name": "getCommitHash",
      "outputs": [
        {
          "internalType": "bytes32",
          "name": "",
          "type": "bytes32"
        }
      ],
      "stateMutability": "view",
      "type": "function"
    },
    {
      "inputs": [
        {
          "components": [
            {
              "internalType": "address",
              "name": "to",
              "type": "address"
            },
            {
              "internalType": "uint256",
              "name": "value",
              "type": "uint256"
            },
            {
              "internalType": "uint256",
              "name": "gasLimit",
              "type": "uint256"
            },
            {
              "internalType": "bytes",
              "name": "data",
              "type": "bytes"
            }
          ],
          "internalType": "struct AccountAbstractionInvoker.TransactionPayload",
          "name": "payload",
          "type": "tuple"
        }
      ],
      "name": "hashPayload",
      "outputs": [
        {
          "internalType": "bytes32",
          "name": "",
          "type": "bytes32"
        }
      ],
      "stateMutability": "pure",
      "type": "function"
    },
    {
      "inputs": [
        {
          "components": [
            {
              "internalType": "address",
              "name": "to",
              "type": "address"
            },
            {
              "internalType": "uint256",
              "name": "value",
              "type": "uint256"
            },
            {
              "internalType": "uint256",
              "name": "gasLimit",
              "type": "uint256"
            },
            {
              "internalType": "bytes",
              "name": "data",
              "type": "bytes"
            }
          ],
          "internalType": "struct AccountAbstractionInvoker.TransactionPayload[]",
          "name": "payloads",
          "type": "tuple[]"
        }
      ],
      "name": "hashPayloads",
      "outputs": [
        {
          "internalType": "bytes32",
          "name": "",
          "type": "bytes32"
        }
      ],
      "stateMutability": "pure",
      "type": "function"
    },
    {
      "inputs": [
        {
          "components": [
            {
              "internalType": "address",
              "name": "from",
              "type": "address"
            },
            {
              "internalType": "uint256",
              "name": "nonce",
              "type": "uint256"
            },
            {
              "components": [
                {
                  "internalType": "address",
                  "name": "to",
                  "type": "address"
                },
                {
                  "internalType": "uint256",
                  "name": "value",
                  "type": "uint256"
                },
                {
                  "internalType": "uint256",
                  "name": "gasLimit",
                  "type": "uint256"
                },
                {
                  "internalType": "bytes",
                  "name": "data",
                  "type": "bytes"
                }
              ],
              "internalType": "struct AccountAbstractionInvoker.TransactionPayload[]",
              "name": "payloads",
              "type": "tuple[]"
            }
          ],
          "internalType": "struct AccountAbstractionInvoker.Transaction",
          "name": "transaction",
          "type": "tuple"
        }
      ],
      "name": "hashTransaction",
      "outputs": [
        {
          "internalType": "bytes32",
          "name": "",
          "type": "bytes32"
        }
      ],
      "stateMutability": "pure",
      "type": "function"
    },
    {
      "inputs": [
        {
          "components": [
            {
              "internalType": "uint256",
              "name": "r",
              "type": "uint256"
            },
            {
              "internalType": "uint256",
              "name": "s",
              "type": "uint256"
            },
            {
              "internalType": "bool",
              "name": "v",
              "type": "bool"
            }
          ],
          "internalType": "struct AccountAbstractionInvoker.Signature",
          "name": "signature",
          "type": "tuple"
        },
        {
          "components": [
            {
              "internalType": "address",
              "name": "from",
              "type": "address"
            },
            {
              "internalType": "uint256",
              "name": "nonce",
              "type": "uint256"
            },
            {
              "components": [
                {
                  "internalType": "address",
                  "name": "to",
                  "type": "address"
                },
                {
                  "internalType": "uint256",
                  "name": "value",
                  "type": "uint256"
                },
                {
                  "internalType": "uint256",
                  "name": "gasLimit",
                  "type": "uint256"
                },
                {
                  "internalType": "bytes",
                  "name": "data",
                  "type": "bytes"
                }
              ],
              "internalType": "struct AccountAbstractionInvoker.TransactionPayload[]",
              "name": "payloads",
              "type": "tuple[]"
            }
          ],
          "internalType": "struct AccountAbstractionInvoker.Transaction",
          "name": "transaction",
          "type": "tuple"
        }
      ],
      "name": "invoke",
      "outputs": [],
      "stateMutability": "payable",
      "type": "function"
    },
    {
      "inputs": [
        {
          "internalType": "address",
          "name": "",
          "type": "address"
        }
      ],
      "name": "nonces",
      "outputs": [
        {
          "internalType": "uint256",
          "name": "",
          "type": "uint256"
        }
      ],
      "stateMutability": "view",
      "type": "function"
    }
  ],
  "bytecode": "0x60a06040523480156200001157600080fd5b507f8b73c3c69bb8fe3d512ecc4cf759cc79239f7b179b0ffacaa9a75d522b39400f6040518060400160405280601b81526020017f4163636f756e74204162737472616374696f6e20496e766f6b657200000000008152506040516020016200007b919062000194565b604051602081830303815290604052805190602001206040518060400160405280600581526020017f312e302e30000000000000000000000000000000000000000000000000000000815250604051602001620000d9919062000194565b60405160208183030381529060405280519060200120463060405160200162000107959493929190620001ad565b60405160208183030381529060405280519060200120608081815250506200029e565b620001358162000220565b82525050565b620001468162000234565b82525050565b600062000159826200020a565b62000165818562000215565b93506200017781856020860162000268565b80840191505092915050565b6200018e816200025e565b82525050565b6000620001a282846200014c565b915081905092915050565b600060a082019050620001c460008301886200013b565b620001d360208301876200013b565b620001e260408301866200013b565b620001f1606083018562000183565b6200020060808301846200012a565b9695505050505050565b600081519050919050565b600081905092915050565b60006200022d826200023e565b9050919050565b6000819050919050565b600073ffffffffffffffffffffffffffffffffffffffff82169050919050565b6000819050919050565b60005b83811015620002885780820151818401526020810190506200026b565b8381111562000298576000848401525b50505050565b608051611388620002c1600039600081816103ab015261055401526113886000f3fe6080604052600436106100915760003560e01c8063b7dd4f4811610059578063b7dd4f48146101b5578063c994de72146101f2578063cc60f5451461021d578063e6d011c914610248578063ee9fb1161461027357610091565b80631a772fc914610096578063277f00f7146100d35780633644e515146101105780636a4a37001461013b5780637ecebe0014610178575b600080fd5b3480156100a257600080fd5b506100bd60048036038101906100b89190610bc6565b61028f565b6040516100ca9190610e39565b60405180910390f35b3480156100df57600080fd5b506100fa60048036038101906100f59190610b85565b610312565b6040516101079190610e39565b60405180910390f35b34801561011c57600080fd5b506101256103a9565b6040516101329190610e39565b60405180910390f35b34801561014757600080fd5b50610162600480360381019061015d9190610ac3565b6103cd565b60405161016f9190610e39565b60405180910390f35b34801561018457600080fd5b5061019f600480360381019061019a9190610a9a565b61052e565b6040516101ac9190610f8c565b60405180910390f35b3480156101c157600080fd5b506101dc60048036038101906101d79190610bc6565b610546565b6040516101e99190610e39565b60405180910390f35b3480156101fe57600080fd5b506102076105ac565b6040516102149190610e39565b60405180910390f35b34801561022957600080fd5b506102326105d0565b60405161023f9190610e39565b60405180910390f35b34801561025457600080fd5b5061025d6105f4565b60405161026a9190610e39565b60405180910390f35b61028d60048036038101906102889190610b31565b610618565b005b60007f7529970b4f063c924f645487213d764a6a833482519970db9631a3e144c245148260000160208101906102c59190610a9a565b83602001356102e28580604001906102dd9190610fa7565b6103cd565b6040516020016102f59493929190610e54565b604051602081830303815290604052805190602001209050919050565b60007f7e78c6e5723a05fb86c72eb2f059bbce3bae9ed4ae123fab4e6b377b890618f18260000160208101906103489190610a9a565b836020013584604001358580606001906103629190610ffe565b604051610370929190610e20565b604051809103902060405160200161038c959493929190610e99565b604051602081830303815290604052805190602001209050919050565b7f000000000000000000000000000000000000000000000000000000000000000081565b6000808383905067ffffffffffffffff811115610413577f4e487b7100000000000000000000000000000000000000000000000000000000600052604160045260246000fd5b6040519080825280602002602001820160405280156104415781602001602082028036833780820191505090505b50905060005b848490508110156104fd576104a585858381811061048e577f4e487b7100000000000000000000000000000000000000000000000000000000600052603260045260246000fd5b90506020028101906104a09190611055565b610312565b8282815181106104de577f4e487b7100000000000000000000000000000000000000000000000000000000600052603260045260246000fd5b60200260200101818152505080806104f5906111ab565b915050610447565b508060405160200161050f9190610dbb565b6040516020818303038152906040528051906020012091505092915050565b60006020528060005260406000206000915090505481565b6000601960f81b600160f81b7f000000000000000000000000000000000000000000000000000000000000000061057c8561028f565b60405160200161058f9493929190610dd2565b604051602081830303815290604052805190602001209050919050565b7f8b73c3c69bb8fe3d512ecc4cf759cc79239f7b179b0ffacaa9a75d522b39400f81565b7f7e78c6e5723a05fb86c72eb2f059bbce3bae9ed4ae123fab4e6b377b890618f181565b7f7529970b4f063c924f645487213d764a6a833482519970db9631a3e144c2451481565b600081806040019061062a9190610fa7565b90501161066c576040517f08c379a000000000000000000000000000000000000000000000000000000000815260040161066390610f2c565b60405180910390fd5b600061067883836108f2565b905081600001602081019061068d9190610a9a565b73ffffffffffffffffffffffffffffffffffffffff168173ffffffffffffffffffffffffffffffffffffffff16146106fa576040517f08c379a00000000000000000000000000000000000000000000000000000000081526004016106f190610f0c565b60405180910390fd5b6000808273ffffffffffffffffffffffffffffffffffffffff1673ffffffffffffffffffffffffffffffffffffffff1681526020019081526020016000205482602001351461077e576040517f08c379a000000000000000000000000000000000000000000000000000000000815260040161077590610eec565b60405180910390fd5b60016000808373ffffffffffffffffffffffffffffffffffffffff1673ffffffffffffffffffffffffffffffffffffffff16815260200190815260200160002060008282546107cd91906110c8565b9250508190555060005b8280604001906107e79190610fa7565b90508110156108a95760006108538480604001906108059190610fa7565b8481811061083c577f4e487b7100000000000000000000000000000000000000000000000000000000600052603260045260246000fd5b905060200281019061084e9190611055565b61093a565b905080610895576040517f08c379a000000000000000000000000000000000000000000000000000000000815260040161088c90610f4c565b60405180910390fd5b5080806108a1906111ab565b9150506107d7565b50600047146108ed576040517f08c379a00000000000000000000000000000000000000000000000000000000081526004016108e490610f6c565b60405180910390fd5b505050565b6000806108fe83610546565b905060008460000135905060008560200135905060008660400160208101906109279190610b08565b905081838286f694505050505092915050565b6000808260400135905060008360000160208101906109599190610a9a565b905060008460200135905060008580606001906109769190610ffe565b8080601f016020809104026020016040519081016040528093929190818152602001838380828437600081840152601f19601f820116905080830192505050505050509050600080825160208401600086888af7945050505050919050565b6000813590506109e481611304565b92915050565b60008083601f8401126109fc57600080fd5b8235905067ffffffffffffffff811115610a1557600080fd5b602083019150836020820283011115610a2d57600080fd5b9250929050565b600081359050610a438161131b565b92915050565b600060608284031215610a5b57600080fd5b81905092915050565b600060808284031215610a7657600080fd5b81905092915050565b600060608284031215610a9157600080fd5b81905092915050565b600060208284031215610aac57600080fd5b6000610aba848285016109d5565b91505092915050565b60008060208385031215610ad657600080fd5b600083013567ffffffffffffffff811115610af057600080fd5b610afc858286016109ea565b92509250509250929050565b600060208284031215610b1a57600080fd5b6000610b2884828501610a34565b91505092915050565b60008060808385031215610b4457600080fd5b6000610b5285828601610a49565b925050606083013567ffffffffffffffff811115610b6f57600080fd5b610b7b85828601610a7f565b9150509250929050565b600060208284031215610b9757600080fd5b600082013567ffffffffffffffff811115610bb157600080fd5b610bbd84828501610a64565b91505092915050565b600060208284031215610bd857600080fd5b600082013567ffffffffffffffff811115610bf257600080fd5b610bfe84828501610a7f565b91505092915050565b6000610c138383610cb2565b60208301905092915050565b610c288161111e565b82525050565b6000610c3982611089565b610c4381856110a1565b9350610c4e83611079565b8060005b83811015610c7f578151610c668882610c07565b9750610c7183611094565b925050600181019050610c52565b5085935050505092915050565b610c9d610c988261113c565b6111f4565b82525050565b610cac81611168565b82525050565b610cbb81611168565b82525050565b610cd2610ccd82611168565b6111fe565b82525050565b6000610ce483856110ac565b9350610cf183858461119c565b82840190509392505050565b6000610d0a600d836110b7565b9150610d1582611237565b602082019050919050565b6000610d2d6011836110b7565b9150610d3882611260565b602082019050919050565b6000610d506016836110b7565b9150610d5b82611289565b602082019050919050565b6000610d736012836110b7565b9150610d7e826112b2565b602082019050919050565b6000610d96600f836110b7565b9150610da1826112db565b602082019050919050565b610db581611192565b82525050565b6000610dc78284610c2e565b915081905092915050565b6000610dde8287610c8c565b600182019150610dee8286610c8c565b600182019150610dfe8285610cc1565b602082019150610e0e8284610cc1565b60208201915081905095945050505050565b6000610e2d828486610cd8565b91508190509392505050565b6000602082019050610e4e6000830184610ca3565b92915050565b6000608082019050610e696000830187610ca3565b610e766020830186610c1f565b610e836040830185610dac565b610e906060830184610ca3565b95945050505050565b600060a082019050610eae6000830188610ca3565b610ebb6020830187610c1f565b610ec86040830186610dac565b610ed56060830185610dac565b610ee26080830184610ca3565b9695505050505050565b60006020820190508181036000830152610f0581610cfd565b9050919050565b60006020820190508181036000830152610f2581610d20565b9050919050565b60006020820190508181036000830152610f4581610d43565b9050919050565b60006020820190508181036000830152610f6581610d66565b9050919050565b60006020820190508181036000830152610f8581610d89565b9050919050565b6000602082019050610fa16000830184610dac565b92915050565b60008083356001602003843603038112610fc057600080fd5b80840192508235915067ffffffffffffffff821115610fde57600080fd5b602083019250602082023603831315610ff657600080fd5b509250929050565b6000808335600160200384360303811261101757600080fd5b80840192508235915067ffffffffffffffff82111561103557600080fd5b60208301925060018202360383131561104d57600080fd5b509250929050565b60008235600160800383360303811261106d57600080fd5b80830191505092915050565b6000819050602082019050919050565b600081519050919050565b6000602082019050919050565b600081905092915050565b600081905092915050565b600082825260208201905092915050565b60006110d382611192565b91506110de83611192565b9250827fffffffffffffffffffffffffffffffffffffffffffffffffffffffffffffffff0382111561111357611112611208565b5b828201905092915050565b600061112982611172565b9050919050565b60008115159050919050565b60007fff0000000000000000000000000000000000000000000000000000000000000082169050919050565b6000819050919050565b600073ffffffffffffffffffffffffffffffffffffffff82169050919050565b6000819050919050565b82818337600083830152505050565b60006111b682611192565b91507fffffffffffffffffffffffffffffffffffffffffffffffffffffffffffffffff8214156111e9576111e8611208565b5b600182019050919050565b6000819050919050565b6000819050919050565b7f4e487b7100000000000000000000000000000000000000000000000000000000600052601160045260246000fd5b7f496e76616c6964206e6f6e636500000000000000000000000000000000000000600082015250565b7f496e76616c6964207369676e6174757265000000000000000000000000000000600082015250565b7f4e6f207472616e73616374696f6e207061796c6f616400000000000000000000600082015250565b7f5472616e73616374696f6e206661696c65640000000000000000000000000000600082015250565b7f496e76616c69642062616c616e63650000000000000000000000000000000000600082015250565b61130d8161111e565b811461131857600080fd5b50565b61132481611130565b811461132f57600080fd5b5056fea2646970667358221220fd7acce74dd521ded6a73c263e2a7b2e610bb599d493635739ab9e0a64c6c73364736f6c637822302e382e322d63692e323032312e332e33312b636f6d6d69742e65653635346363330053",
  "linkReferences": {},
  "deployedLinkReferences": {}
}