{
  "_format": "hh-sol-artifact-1",
  "contractName": "AccountSessionInvoker",
  "sourceName": "contracts/AccountSessionInvoker.sol",
  "abi": [
    {
      "inputs": [],
      "name": "DOMAIN_SEPARATOR",
      "outputs": [
        {
          "internalType": "bytes32",
          "name": "",
          "type": "bytes32"
        }
      ],
      "stateMutability": "view",
      "type": "function"
    },
    {
      "inputs": [],
      "name": "EIP712DOMAIN_TYPE",
      "outputs": [
        {
          "internalType": "bytes32",
          "name": "",
          "type": "bytes32"
        }
      ],
      "stateMutability": "view",
      "type": "function"
    },
    {
      "inputs": [],
      "name": "SESSION_TOKEN_TYPE",
      "outputs": [
        {
          "internalType": "bytes32",
          "name": "",
          "type": "bytes32"
        }
      ],
      "stateMutability": "view",
      "type": "function"
    },
    {
      "inputs": [],
      "name": "TRANSACTION_PAYLOAD_TYPE",
      "outputs": [
        {
          "internalType": "bytes32",
          "name": "",
          "type": "bytes32"
        }
      ],
      "stateMutability": "view",
      "type": "function"
    },
    {
      "inputs": [],
      "name": "TRANSACTION_TYPE",
      "outputs": [
        {
          "internalType": "bytes32",
          "name": "",
          "type": "bytes32"
        }
      ],
      "stateMutability": "view",
      "type": "function"
    },
    {
      "inputs": [
        {
          "components": [
            {
              "internalType": "address",
              "name": "delegate",
              "type": "address"
            },
            {
              "internalType": "uint256",
              "name": "expiration",
              "type": "uint256"
            }
          ],
          "internalType": "struct AccountSessionInvoker.SessionToken",
          "name": "token",
          "type": "tuple"
        }
      ],
      "name": "getCommitHash",
      "outputs": [
        {
          "internalType": "bytes32",
          "name": "",
          "type": "bytes32"
        }
      ],
      "stateMutability": "view",
      "type": "function"
    },
    {
      "inputs": [
        {
          "components": [
            {
              "internalType": "address",
              "name": "to",
              "type": "address"
            },
            {
              "internalType": "uint256",
              "name": "value",
              "type": "uint256"
            },
            {
              "internalType": "uint256",
              "name": "gasLimit",
              "type": "uint256"
            },
            {
              "internalType": "bytes",
              "name": "data",
              "type": "bytes"
            }
          ],
          "internalType": "struct EIP3074Base.TransactionPayload",
          "name": "payload",
          "type": "tuple"
        }
      ],
      "name": "hashPayload",
      "outputs": [
        {
          "internalType": "bytes32",
          "name": "",
          "type": "bytes32"
        }
      ],
      "stateMutability": "pure",
      "type": "function"
    },
    {
      "inputs": [
        {
          "components": [
            {
              "internalType": "address",
              "name": "to",
              "type": "address"
            },
            {
              "internalType": "uint256",
              "name": "value",
              "type": "uint256"
            },
            {
              "internalType": "uint256",
              "name": "gasLimit",
              "type": "uint256"
            },
            {
              "internalType": "bytes",
              "name": "data",
              "type": "bytes"
            }
          ],
          "internalType": "struct EIP3074Base.TransactionPayload[]",
          "name": "payloads",
          "type": "tuple[]"
        }
      ],
      "name": "hashPayloads",
      "outputs": [
        {
          "internalType": "bytes32",
          "name": "",
          "type": "bytes32"
        }
      ],
      "stateMutability": "pure",
      "type": "function"
    },
    {
      "inputs": [
        {
          "components": [
            {
              "internalType": "address",
              "name": "delegate",
              "type": "address"
            },
            {
              "internalType": "uint256",
              "name": "expiration",
              "type": "uint256"
            }
          ],
          "internalType": "struct AccountSessionInvoker.SessionToken",
          "name": "token",
          "type": "tuple"
        }
      ],
      "name": "hashSessionToken",
      "outputs": [
        {
          "internalType": "bytes32",
          "name": "",
          "type": "bytes32"
        }
      ],
      "stateMutability": "pure",
      "type": "function"
    },
    {
      "inputs": [
        {
          "components": [
            {
              "internalType": "address",
              "name": "from",
              "type": "address"
            },
            {
              "internalType": "uint256",
              "name": "nonce",
              "type": "uint256"
            },
            {
              "components": [
                {
                  "internalType": "address",
                  "name": "to",
                  "type": "address"
                },
                {
                  "internalType": "uint256",
                  "name": "value",
                  "type": "uint256"
                },
                {
                  "internalType": "uint256",
                  "name": "gasLimit",
                  "type": "uint256"
                },
                {
                  "internalType": "bytes",
                  "name": "data",
                  "type": "bytes"
                }
              ],
              "internalType": "struct EIP3074Base.TransactionPayload[]",
              "name": "payloads",
              "type": "tuple[]"
            }
          ],
          "internalType": "struct EIP3074Base.Transaction",
          "name": "transaction",
          "type": "tuple"
        }
      ],
      "name": "hashTransaction",
      "outputs": [
        {
          "internalType": "bytes32",
          "name": "",
          "type": "bytes32"
        }
      ],
      "stateMutability": "pure",
      "type": "function"
    },
    {
      "inputs": [
        {
          "components": [
            {
              "internalType": "uint256",
              "name": "r",
              "type": "uint256"
            },
            {
              "internalType": "uint256",
              "name": "s",
              "type": "uint256"
            },
            {
              "internalType": "bool",
              "name": "v",
              "type": "bool"
            }
          ],
          "internalType": "struct EIP3074Base.Signature",
          "name": "signature",
          "type": "tuple"
        },
        {
          "components": [
            {
              "internalType": "address",
              "name": "delegate",
              "type": "address"
            },
            {
              "internalType": "uint256",
              "name": "expiration",
              "type": "uint256"
            }
          ],
          "internalType": "struct AccountSessionInvoker.SessionToken",
          "name": "token",
          "type": "tuple"
        },
        {
          "components": [
            {
              "internalType": "address",
              "name": "to",
              "type": "address"
            },
            {
              "internalType": "uint256",
              "name": "value",
              "type": "uint256"
            },
            {
              "internalType": "uint256",
              "name": "gasLimit",
              "type": "uint256"
            },
            {
              "internalType": "bytes",
              "name": "data",
              "type": "bytes"
            }
          ],
          "internalType": "struct EIP3074Base.TransactionPayload[]",
          "name": "payloads",
          "type": "tuple[]"
        }
      ],
      "name": "invoke",
      "outputs": [],
      "stateMutability": "payable",
      "type": "function"
    },
    {
      "inputs": [
        {
          "internalType": "address",
          "name": "",
          "type": "address"
        }
      ],
      "name": "toWhitelist",
      "outputs": [
        {
          "internalType": "bool",
          "name": "",
          "type": "bool"
        }
      ],
      "stateMutability": "view",
      "type": "function"
    }
  ],
  "bytecode": "0x60a06040523480156200001157600080fd5b507f8b73c3c69bb8fe3d512ecc4cf759cc79239f7b179b0ffacaa9a75d522b39400f62000043620000de60201b60201c565b604051602001620000559190620001c2565b604051602081830303815290604052805190602001206200007b6200011b60201b60201c565b6040516020016200008d9190620001c2565b604051602081830303815290604052805190602001204630604051602001620000bb959493929190620001db565b6040516020818303038152906040528051906020012060808181525050620002cc565b60606040518060400160405280601781526020017f4163636f756e742053657373696f6e20496e766f6b6572000000000000000000815250905090565b60606040518060400160405280600581526020017f312e302e30000000000000000000000000000000000000000000000000000000815250905090565b62000163816200024e565b82525050565b620001748162000262565b82525050565b6000620001878262000238565b62000193818562000243565b9350620001a581856020860162000296565b80840191505092915050565b620001bc816200028c565b82525050565b6000620001d082846200017a565b915081905092915050565b600060a082019050620001f2600083018862000169565b62000201602083018762000169565b62000210604083018662000169565b6200021f6060830185620001b1565b6200022e608083018462000158565b9695505050505050565b600081519050919050565b600081905092915050565b60006200025b826200026c565b9050919050565b6000819050919050565b600073ffffffffffffffffffffffffffffffffffffffff82169050919050565b6000819050919050565b60005b83811015620002b657808201518184015260208101905062000299565b83811115620002c6576000848401525b50505050565b6080516114cb620002ef600039600081816106b1015261088601526114cb6000f3fe6080604052600436106100a75760003560e01c80638678f686116100645780638678f686146101e7578063902d17fe146102245780639f31537d1461024f578063c994de721461028c578063cc60f545146102b7578063e6d011c9146102e2576100a7565b806317fa74f6146100ac5780631a772fc9146100e9578063277f00f7146101265780632b3ab52a146101635780633644e5151461017f5780636a4a3700146101aa575b600080fd5b3480156100b857600080fd5b506100d360048036038101906100ce9190610c1d565b61030d565b6040516100e09190610f90565b60405180910390f35b3480156100f557600080fd5b50610110600480360381019061010b9190610cf3565b610377565b60405161011d9190610f90565b60405180910390f35b34801561013257600080fd5b5061014d60048036038101906101489190610cb2565b6103fa565b60405161015a9190610f90565b60405180910390f35b61017d60048036038101906101789190610c46565b610491565b005b34801561018b57600080fd5b506101946106af565b6040516101a19190610f90565b60405180910390f35b3480156101b657600080fd5b506101d160048036038101906101cc9190610baf565b6106d3565b6040516101de9190610f90565b60405180910390f35b3480156101f357600080fd5b5061020e60048036038101906102099190610b86565b610834565b60405161021b9190610f75565b60405180910390f35b34801561023057600080fd5b50610239610854565b6040516102469190610f90565b60405180910390f35b34801561025b57600080fd5b5061027660048036038101906102719190610c1d565b610878565b6040516102839190610f90565b60405180910390f35b34801561029857600080fd5b506102a16108de565b6040516102ae9190610f90565b60405180910390f35b3480156102c357600080fd5b506102cc610902565b6040516102d99190610f90565b60405180910390f35b3480156102ee57600080fd5b506102f7610926565b6040516103049190610f90565b60405180910390f35b60007fc105ba9475a0475d6c96cebee50e984cfc8788a6c6298a56d7c36fa87714ff0d8260000160208101906103439190610b86565b836020013560405160200161035a93929190610fab565b604051602081830303815290604052805190602001209050919050565b60007f7529970b4f063c924f645487213d764a6a833482519970db9631a3e144c245148260000160208101906103ad9190610b86565b83602001356103ca8580604001906103c5919061111a565b6106d3565b6040516020016103dd9493929190610fe2565b604051602081830303815290604052805190602001209050919050565b60007f7e78c6e5723a05fb86c72eb2f059bbce3bae9ed4ae123fab4e6b377b890618f18260000160208101906104309190610b86565b8360200135846040013585806060019061044a9190611171565b604051610458929190610f5c565b6040518091039020604051602001610474959493929190611027565b604051602081830303815290604052805190602001209050919050565b600082829050116104d7576040517f08c379a00000000000000000000000000000000000000000000000000000000081526004016104ce906110ba565b60405180910390fd5b60006104e3858561094a565b90504284602001351061052b576040517f08c379a00000000000000000000000000000000000000000000000000000000081526004016105229061107a565b60405180910390fd5b83600001602081019061053e9190610b86565b73ffffffffffffffffffffffffffffffffffffffff163373ffffffffffffffffffffffffffffffffffffffff16146105ab576040517f08c379a00000000000000000000000000000000000000000000000000000000081526004016105a29061109a565b60405180910390fd5b60005b8383905081101561066457600061060e8585848181106105f7577f4e487b7100000000000000000000000000000000000000000000000000000000600052603260045260246000fd5b905060200281019061060991906111c8565b610992565b905080610650576040517f08c379a0000000000000000000000000000000000000000000000000000000008152600401610647906110da565b60405180910390fd5b50808061065c906112c8565b9150506105ae565b50600047146106a8576040517f08c379a000000000000000000000000000000000000000000000000000000000815260040161069f906110fa565b60405180910390fd5b5050505050565b7f000000000000000000000000000000000000000000000000000000000000000081565b6000808383905067ffffffffffffffff811115610719577f4e487b7100000000000000000000000000000000000000000000000000000000600052604160045260246000fd5b6040519080825280602002602001820160405280156107475781602001602082028036833780820191505090505b50905060005b84849050811015610803576107ab858583818110610794577f4e487b7100000000000000000000000000000000000000000000000000000000600052603260045260246000fd5b90506020028101906107a691906111c8565b6103fa565b8282815181106107e4577f4e487b7100000000000000000000000000000000000000000000000000000000600052603260045260246000fd5b60200260200101818152505080806107fb906112c8565b91505061074d565b50806040516020016108159190610ef7565b6040516020818303038152906040528051906020012091505092915050565b60006020528060005260406000206000915054906101000a900460ff1681565b7fc105ba9475a0475d6c96cebee50e984cfc8788a6c6298a56d7c36fa87714ff0d81565b6000601960f81b600160f81b7f00000000000000000000000000000000000000000000000000000000000000006108ae8561030d565b6040516020016108c19493929190610f0e565b604051602081830303815290604052805190602001209050919050565b7f8b73c3c69bb8fe3d512ecc4cf759cc79239f7b179b0ffacaa9a75d522b39400f81565b7f7e78c6e5723a05fb86c72eb2f059bbce3bae9ed4ae123fab4e6b377b890618f181565b7f7529970b4f063c924f645487213d764a6a833482519970db9631a3e144c2451481565b60008061095683610878565b9050600084600001359050600085602001359050600086604001602081019061097f9190610bf4565b905081838286f694505050505092915050565b6000808260400135905060008360000160208101906109b19190610b86565b905060008460200135905060008580606001906109ce9190611171565b8080601f016020809104026020016040519081016040528093929190818152602001838380828437600081840152601f19601f820116905080830192505050505050509050610a1c86610a3f565b610a2557600080fd5b600080825160208401600086888af7945050505050919050565b6000806000836000016020810190610a579190610b86565b73ffffffffffffffffffffffffffffffffffffffff1673ffffffffffffffffffffffffffffffffffffffff16815260200190815260200160002060009054906101000a900460ff169050919050565b600081359050610ab581611447565b92915050565b60008083601f840112610acd57600080fd5b8235905067ffffffffffffffff811115610ae657600080fd5b602083019150836020820283011115610afe57600080fd5b9250929050565b600081359050610b148161145e565b92915050565b600060408284031215610b2c57600080fd5b81905092915050565b600060608284031215610b4757600080fd5b81905092915050565b600060808284031215610b6257600080fd5b81905092915050565b600060608284031215610b7d57600080fd5b81905092915050565b600060208284031215610b9857600080fd5b6000610ba684828501610aa6565b91505092915050565b60008060208385031215610bc257600080fd5b600083013567ffffffffffffffff811115610bdc57600080fd5b610be885828601610abb565b92509250509250929050565b600060208284031215610c0657600080fd5b6000610c1484828501610b05565b91505092915050565b600060408284031215610c2f57600080fd5b6000610c3d84828501610b1a565b91505092915050565b60008060008060c08587031215610c5c57600080fd5b6000610c6a87828801610b35565b9450506060610c7b87828801610b1a565b93505060a085013567ffffffffffffffff811115610c9857600080fd5b610ca487828801610abb565b925092505092959194509250565b600060208284031215610cc457600080fd5b600082013567ffffffffffffffff811115610cde57600080fd5b610cea84828501610b50565b91505092915050565b600060208284031215610d0557600080fd5b600082013567ffffffffffffffff811115610d1f57600080fd5b610d2b84828501610b6b565b91505092915050565b6000610d408383610dee565b60208301905092915050565b610d558161123b565b82525050565b6000610d66826111fc565b610d708185611214565b9350610d7b836111ec565b8060005b83811015610dac578151610d938882610d34565b9750610d9e83611207565b925050600181019050610d7f565b5085935050505092915050565b610dc28161124d565b82525050565b610dd9610dd482611259565b611311565b82525050565b610de881611285565b82525050565b610df781611285565b82525050565b610e0e610e0982611285565b61131b565b82525050565b6000610e20838561121f565b9350610e2d8385846112b9565b82840190509392505050565b6000610e4660118361122a565b9150610e5182611354565b602082019050919050565b6000610e69602d8361122a565b9150610e748261137d565b604082019050919050565b6000610e8c60178361122a565b9150610e97826113cc565b602082019050919050565b6000610eaf60128361122a565b9150610eba826113f5565b602082019050919050565b6000610ed2600f8361122a565b9150610edd8261141e565b602082019050919050565b610ef1816112af565b82525050565b6000610f038284610d5b565b915081905092915050565b6000610f1a8287610dc8565b600182019150610f2a8286610dc8565b600182019150610f3a8285610dfd565b602082019150610f4a8284610dfd565b60208201915081905095945050505050565b6000610f69828486610e14565b91508190509392505050565b6000602082019050610f8a6000830184610db9565b92915050565b6000602082019050610fa56000830184610ddf565b92915050565b6000606082019050610fc06000830186610ddf565b610fcd6020830185610d4c565b610fda6040830184610ee8565b949350505050565b6000608082019050610ff76000830187610ddf565b6110046020830186610d4c565b6110116040830185610ee8565b61101e6060830184610ddf565b95945050505050565b600060a08201905061103c6000830188610ddf565b6110496020830187610d4c565b6110566040830186610ee8565b6110636060830185610ee8565b6110706080830184610ddf565b9695505050505050565b6000602082019050818103600083015261109381610e39565b9050919050565b600060208201905081810360008301526110b381610e5c565b9050919050565b600060208201905081810360008301526110d381610e7f565b9050919050565b600060208201905081810360008301526110f381610ea2565b9050919050565b6000602082019050818103600083015261111381610ec5565b9050919050565b6000808335600160200384360303811261113357600080fd5b80840192508235915067ffffffffffffffff82111561115157600080fd5b60208301925060208202360383131561116957600080fd5b509250929050565b6000808335600160200384360303811261118a57600080fd5b80840192508235915067ffffffffffffffff8211156111a857600080fd5b6020830192506001820236038313156111c057600080fd5b509250929050565b6000823560016080038336030381126111e057600080fd5b80830191505092915050565b6000819050602082019050919050565b600081519050919050565b6000602082019050919050565b600081905092915050565b600081905092915050565b600082825260208201905092915050565b60006112468261128f565b9050919050565b60008115159050919050565b60007fff0000000000000000000000000000000000000000000000000000000000000082169050919050565b6000819050919050565b600073ffffffffffffffffffffffffffffffffffffffff82169050919050565b6000819050919050565b82818337600083830152505050565b60006112d3826112af565b91507fffffffffffffffffffffffffffffffffffffffffffffffffffffffffffffffff82141561130657611305611325565b5b600182019050919050565b6000819050919050565b6000819050919050565b7f4e487b7100000000000000000000000000000000000000000000000000000000600052601160045260246000fd5b7f746f6b656e206861732065787069726564000000000000000000000000000000600082015250565b7f746f6b656e2063616e206f6e6c7920626520757365642062792064657369676e60008201527f617465642064656c656761746500000000000000000000000000000000000000602082015250565b7f4e6f207472616e73616374696f6e207061796c6f616473000000000000000000600082015250565b7f5472616e73616374696f6e206661696c65640000000000000000000000000000600082015250565b7f496e76616c69642062616c616e63650000000000000000000000000000000000600082015250565b6114508161123b565b811461145b57600080fd5b50565b6114678161124d565b811461147257600080fd5b5056fea2646970667358221220efca6f819d2b40385b65e3960e09859b5d4898eee9e9b7a251ea6d9368ff323164736f6c637822302e382e322d63692e323032312e332e33312b636f6d6d69742e65653635346363330053",
  "linkReferences": {},
  "deployedLinkReferences": {}
}