{
  "_format": "hh-sol-artifact-1",
  "contractName": "AccountSessionInvoker",
  "sourceName": "contracts/AccountSessionInvoker.sol",
  "abi": [
    {
      "inputs": [
        {
          "internalType": "address[]",
          "name": "allowed",
          "type": "address[]"
        }
      ],
      "stateMutability": "nonpayable",
      "type": "constructor"
    },
    {
      "inputs": [],
      "name": "DOMAIN_SEPARATOR",
      "outputs": [
        {
          "internalType": "bytes32",
          "name": "",
          "type": "bytes32"
        }
      ],
      "stateMutability": "view",
      "type": "function"
    },
    {
      "inputs": [],
      "name": "EIP712DOMAIN_TYPE",
      "outputs": [
        {
          "internalType": "bytes32",
          "name": "",
          "type": "bytes32"
        }
      ],
      "stateMutability": "view",
      "type": "function"
    },
    {
      "inputs": [],
      "name": "SESSION_TOKEN_TYPE",
      "outputs": [
        {
          "internalType": "bytes32",
          "name": "",
          "type": "bytes32"
        }
      ],
      "stateMutability": "view",
      "type": "function"
    },
    {
      "inputs": [],
      "name": "TRANSACTION_PAYLOAD_TYPE",
      "outputs": [
        {
          "internalType": "bytes32",
          "name": "",
          "type": "bytes32"
        }
      ],
      "stateMutability": "view",
      "type": "function"
    },
    {
      "inputs": [],
      "name": "TRANSACTION_TYPE",
      "outputs": [
        {
          "internalType": "bytes32",
          "name": "",
          "type": "bytes32"
        }
      ],
      "stateMutability": "view",
      "type": "function"
    },
    {
      "inputs": [
        {
          "components": [
            {
              "internalType": "address",
              "name": "delegate",
              "type": "address"
            },
            {
              "internalType": "uint256",
              "name": "expiration",
              "type": "uint256"
            }
          ],
          "internalType": "struct AccountSessionInvoker.SessionToken",
          "name": "token",
          "type": "tuple"
        }
      ],
      "name": "getCommitHash",
      "outputs": [
        {
          "internalType": "bytes32",
          "name": "",
          "type": "bytes32"
        }
      ],
      "stateMutability": "view",
      "type": "function"
    },
    {
      "inputs": [
        {
          "components": [
            {
              "internalType": "address",
              "name": "to",
              "type": "address"
            },
            {
              "internalType": "uint256",
              "name": "value",
              "type": "uint256"
            },
            {
              "internalType": "uint256",
              "name": "gasLimit",
              "type": "uint256"
            },
            {
              "internalType": "bytes",
              "name": "data",
              "type": "bytes"
            }
          ],
          "internalType": "struct EIP3074Base.TransactionPayload",
          "name": "payload",
          "type": "tuple"
        }
      ],
      "name": "hashPayload",
      "outputs": [
        {
          "internalType": "bytes32",
          "name": "",
          "type": "bytes32"
        }
      ],
      "stateMutability": "pure",
      "type": "function"
    },
    {
      "inputs": [
        {
          "components": [
            {
              "internalType": "address",
              "name": "to",
              "type": "address"
            },
            {
              "internalType": "uint256",
              "name": "value",
              "type": "uint256"
            },
            {
              "internalType": "uint256",
              "name": "gasLimit",
              "type": "uint256"
            },
            {
              "internalType": "bytes",
              "name": "data",
              "type": "bytes"
            }
          ],
          "internalType": "struct EIP3074Base.TransactionPayload[]",
          "name": "payloads",
          "type": "tuple[]"
        }
      ],
      "name": "hashPayloads",
      "outputs": [
        {
          "internalType": "bytes32",
          "name": "",
          "type": "bytes32"
        }
      ],
      "stateMutability": "pure",
      "type": "function"
    },
    {
      "inputs": [
        {
          "components": [
            {
              "internalType": "address",
              "name": "delegate",
              "type": "address"
            },
            {
              "internalType": "uint256",
              "name": "expiration",
              "type": "uint256"
            }
          ],
          "internalType": "struct AccountSessionInvoker.SessionToken",
          "name": "token",
          "type": "tuple"
        }
      ],
      "name": "hashSessionToken",
      "outputs": [
        {
          "internalType": "bytes32",
          "name": "",
          "type": "bytes32"
        }
      ],
      "stateMutability": "pure",
      "type": "function"
    },
    {
      "inputs": [
        {
          "components": [
            {
              "internalType": "address",
              "name": "from",
              "type": "address"
            },
            {
              "internalType": "uint256",
              "name": "nonce",
              "type": "uint256"
            },
            {
              "components": [
                {
                  "internalType": "address",
                  "name": "to",
                  "type": "address"
                },
                {
                  "internalType": "uint256",
                  "name": "value",
                  "type": "uint256"
                },
                {
                  "internalType": "uint256",
                  "name": "gasLimit",
                  "type": "uint256"
                },
                {
                  "internalType": "bytes",
                  "name": "data",
                  "type": "bytes"
                }
              ],
              "internalType": "struct EIP3074Base.TransactionPayload[]",
              "name": "payloads",
              "type": "tuple[]"
            }
          ],
          "internalType": "struct EIP3074Base.Transaction",
          "name": "transaction",
          "type": "tuple"
        }
      ],
      "name": "hashTransaction",
      "outputs": [
        {
          "internalType": "bytes32",
          "name": "",
          "type": "bytes32"
        }
      ],
      "stateMutability": "pure",
      "type": "function"
    },
    {
      "inputs": [
        {
          "components": [
            {
              "internalType": "uint256",
              "name": "r",
              "type": "uint256"
            },
            {
              "internalType": "uint256",
              "name": "s",
              "type": "uint256"
            },
            {
              "internalType": "bool",
              "name": "v",
              "type": "bool"
            }
          ],
          "internalType": "struct EIP3074Base.Signature",
          "name": "signature",
          "type": "tuple"
        },
        {
          "components": [
            {
              "internalType": "address",
              "name": "delegate",
              "type": "address"
            },
            {
              "internalType": "uint256",
              "name": "expiration",
              "type": "uint256"
            }
          ],
          "internalType": "struct AccountSessionInvoker.SessionToken",
          "name": "token",
          "type": "tuple"
        },
        {
          "components": [
            {
              "internalType": "address",
              "name": "to",
              "type": "address"
            },
            {
              "internalType": "uint256",
              "name": "value",
              "type": "uint256"
            },
            {
              "internalType": "uint256",
              "name": "gasLimit",
              "type": "uint256"
            },
            {
              "internalType": "bytes",
              "name": "data",
              "type": "bytes"
            }
          ],
          "internalType": "struct EIP3074Base.TransactionPayload[]",
          "name": "payloads",
          "type": "tuple[]"
        }
      ],
      "name": "invoke",
      "outputs": [],
      "stateMutability": "payable",
      "type": "function"
    },
    {
      "inputs": [
        {
          "internalType": "address",
          "name": "addr",
          "type": "address"
        }
      ],
      "name": "isWhitelisted",
      "outputs": [
        {
          "internalType": "bool",
          "name": "",
          "type": "bool"
        }
      ],
      "stateMutability": "view",
      "type": "function"
    },
    {
      "inputs": [
        {
          "internalType": "address",
          "name": "",
          "type": "address"
        }
      ],
      "name": "whitelist",
      "outputs": [
        {
          "internalType": "bool",
          "name": "",
          "type": "bool"
        }
      ],
      "stateMutability": "view",
      "type": "function"
    }
  ],
  "bytecode": "0x60a06040523480156200001157600080fd5b5060405162001cc938038062001cc98339818101604052810190620000379190620002f3565b7f8b73c3c69bb8fe3d512ecc4cf759cc79239f7b179b0ffacaa9a75d522b39400f62000068620001c060201b60201c565b6040516020016200007a9190620003a2565b60405160208183030381529060405280519060200120620000a0620001fd60201b60201c565b604051602001620000b29190620003a2565b604051602081830303815290604052805190602001204630604051602001620000e0959493929190620003bb565b604051602081830303815290604052805190602001206080818152505060005b8151811015620001b857600160008084848151811062000149577f4e487b7100000000000000000000000000000000000000000000000000000000600052603260045260246000fd5b602002602001015173ffffffffffffffffffffffffffffffffffffffff1673ffffffffffffffffffffffffffffffffffffffff16815260200190815260200160002060006101000a81548160ff0219169083151502179055508080620001af906200053a565b91505062000100565b505062000611565b60606040518060400160405280601781526020017f4163636f756e742053657373696f6e20496e766f6b6572000000000000000000815250905090565b60606040518060400160405280600581526020017f312e302e30000000000000000000000000000000000000000000000000000000815250905090565b6000620002516200024b8462000441565b62000418565b905080838252602082019050828560208602820111156200027157600080fd5b60005b85811015620002a557816200028a8882620002af565b84526020840193506020830192505060018101905062000274565b5050509392505050565b600081519050620002c081620005f7565b92915050565b600082601f830112620002d857600080fd5b8151620002ea8482602086016200023a565b91505092915050565b6000602082840312156200030657600080fd5b600082015167ffffffffffffffff8111156200032157600080fd5b6200032f84828501620002c6565b91505092915050565b620003438162000486565b82525050565b62000354816200049a565b82525050565b6000620003678262000470565b6200037381856200047b565b935062000385818560208601620004ce565b80840191505092915050565b6200039c81620004c4565b82525050565b6000620003b082846200035a565b915081905092915050565b600060a082019050620003d2600083018862000349565b620003e1602083018762000349565b620003f0604083018662000349565b620003ff606083018562000391565b6200040e608083018462000338565b9695505050505050565b60006200042462000437565b905062000432828262000504565b919050565b6000604051905090565b600067ffffffffffffffff8211156200045f576200045e620005b7565b5b602082029050602081019050919050565b600081519050919050565b600081905092915050565b60006200049382620004a4565b9050919050565b6000819050919050565b600073ffffffffffffffffffffffffffffffffffffffff82169050919050565b6000819050919050565b60005b83811015620004ee578082015181840152602081019050620004d1565b83811115620004fe576000848401525b50505050565b6200050f82620005e6565b810181811067ffffffffffffffff82111715620005315762000530620005b7565b5b80604052505050565b60006200054782620004c4565b91507fffffffffffffffffffffffffffffffffffffffffffffffffffffffffffffffff8214156200057d576200057c62000588565b5b600182019050919050565b7f4e487b7100000000000000000000000000000000000000000000000000000000600052601160045260246000fd5b7f4e487b7100000000000000000000000000000000000000000000000000000000600052604160045260246000fd5b6000601f19601f8301169050919050565b620006028162000486565b81146200060e57600080fd5b50565b608051611695620006346000396000818161079401526109be01526116956000f3fe6080604052600436106100c25760003560e01c80636a4a37001161007f5780639f31537d116100595780639f31537d146102a7578063c994de72146102e4578063cc60f5451461030f578063e6d011c91461033a576100c2565b80636a4a370014610202578063902d17fe1461023f5780639b19251a1461026a576100c2565b806317fa74f6146100c75780631a772fc914610104578063277f00f7146101415780632b3ab52a1461017e5780633644e5151461019a5780633af32abf146101c5575b600080fd5b3480156100d357600080fd5b506100ee60048036038101906100e99190610d55565b610365565b6040516100fb91906110eb565b60405180910390f35b34801561011057600080fd5b5061012b60048036038101906101269190610e2b565b6103cf565b60405161013891906110eb565b60405180910390f35b34801561014d57600080fd5b5061016860048036038101906101639190610dea565b610452565b60405161017591906110eb565b60405180910390f35b61019860048036038101906101939190610d7e565b6104e9565b005b3480156101a657600080fd5b506101af610792565b6040516101bc91906110eb565b60405180910390f35b3480156101d157600080fd5b506101ec60048036038101906101e79190610cbe565b6107b6565b6040516101f991906110d0565b60405180910390f35b34801561020e57600080fd5b5061022960048036038101906102249190610ce7565b61080b565b60405161023691906110eb565b60405180910390f35b34801561024b57600080fd5b5061025461096c565b60405161026191906110eb565b60405180910390f35b34801561027657600080fd5b50610291600480360381019061028c9190610cbe565b610990565b60405161029e91906110d0565b60405180910390f35b3480156102b357600080fd5b506102ce60048036038101906102c99190610d55565b6109b0565b6040516102db91906110eb565b60405180910390f35b3480156102f057600080fd5b506102f9610a16565b60405161030691906110eb565b60405180910390f35b34801561031b57600080fd5b50610324610a3a565b60405161033191906110eb565b60405180910390f35b34801561034657600080fd5b5061034f610a5e565b60405161035c91906110eb565b60405180910390f35b60007fc105ba9475a0475d6c96cebee50e984cfc8788a6c6298a56d7c36fa87714ff0d82600001602081019061039b9190610cbe565b83602001356040516020016103b293929190611106565b604051602081830303815290604052805190602001209050919050565b60007f7529970b4f063c924f645487213d764a6a833482519970db9631a3e144c245148260000160208101906104059190610cbe565b836020013561042285806040019061041d9190611295565b61080b565b604051602001610435949392919061113d565b604051602081830303815290604052805190602001209050919050565b60007f7e78c6e5723a05fb86c72eb2f059bbce3bae9ed4ae123fab4e6b377b890618f18260000160208101906104889190610cbe565b836020013584604001358580606001906104a291906112ec565b6040516104b09291906110b7565b60405180910390206040516020016104cc959493929190611182565b604051602081830303815290604052805190602001209050919050565b6000803373ffffffffffffffffffffffffffffffffffffffff1673ffffffffffffffffffffffffffffffffffffffff16815260200190815260200160002060009054906101000a900460ff16610574576040517f08c379a000000000000000000000000000000000000000000000000000000000815260040161056b906111f5565b60405180910390fd5b600082829050116105ba576040517f08c379a00000000000000000000000000000000000000000000000000000000081526004016105b190611235565b60405180910390fd5b60006105c68585610a82565b90504284602001351061060e576040517f08c379a0000000000000000000000000000000000000000000000000000000008152600401610605906111d5565b60405180910390fd5b8360000160208101906106219190610cbe565b73ffffffffffffffffffffffffffffffffffffffff163373ffffffffffffffffffffffffffffffffffffffff161461068e576040517f08c379a000000000000000000000000000000000000000000000000000000000815260040161068590611215565b60405180910390fd5b60005b838390508110156107475760006106f18585848181106106da577f4e487b7100000000000000000000000000000000000000000000000000000000600052603260045260246000fd5b90506020028101906106ec9190611343565b610aca565b905080610733576040517f08c379a000000000000000000000000000000000000000000000000000000000815260040161072a90611255565b60405180910390fd5b50808061073f90611443565b915050610691565b506000471461078b576040517f08c379a000000000000000000000000000000000000000000000000000000000815260040161078290611275565b60405180910390fd5b5050505050565b7f000000000000000000000000000000000000000000000000000000000000000081565b60008060008373ffffffffffffffffffffffffffffffffffffffff1673ffffffffffffffffffffffffffffffffffffffff16815260200190815260200160002060009054906101000a900460ff169050919050565b6000808383905067ffffffffffffffff811115610851577f4e487b7100000000000000000000000000000000000000000000000000000000600052604160045260246000fd5b60405190808252806020026020018201604052801561087f5781602001602082028036833780820191505090505b50905060005b8484905081101561093b576108e38585838181106108cc577f4e487b7100000000000000000000000000000000000000000000000000000000600052603260045260246000fd5b90506020028101906108de9190611343565b610452565b82828151811061091c577f4e487b7100000000000000000000000000000000000000000000000000000000600052603260045260246000fd5b602002602001018181525050808061093390611443565b915050610885565b508060405160200161094d9190611052565b6040516020818303038152906040528051906020012091505092915050565b7fc105ba9475a0475d6c96cebee50e984cfc8788a6c6298a56d7c36fa87714ff0d81565b60006020528060005260406000206000915054906101000a900460ff1681565b6000601960f81b600160f81b7f00000000000000000000000000000000000000000000000000000000000000006109e685610365565b6040516020016109f99493929190611069565b604051602081830303815290604052805190602001209050919050565b7f8b73c3c69bb8fe3d512ecc4cf759cc79239f7b179b0ffacaa9a75d522b39400f81565b7f7e78c6e5723a05fb86c72eb2f059bbce3bae9ed4ae123fab4e6b377b890618f181565b7f7529970b4f063c924f645487213d764a6a833482519970db9631a3e144c2451481565b600080610a8e836109b0565b90506000846000013590506000856020013590506000866040016020810190610ab79190610d2c565b905081838286f694505050505092915050565b600080826040013590506000836000016020810190610ae99190610cbe565b90506000846020013590506000858060600190610b0691906112ec565b8080601f016020809104026020016040519081016040528093929190818152602001838380828437600081840152601f19601f820116905080830192505050505050509050610b5486610b77565b610b5d57600080fd5b600080825160208401600086888af7945050505050919050565b6000806000836000016020810190610b8f9190610cbe565b73ffffffffffffffffffffffffffffffffffffffff1673ffffffffffffffffffffffffffffffffffffffff16815260200190815260200160002060009054906101000a900460ff169050919050565b600081359050610bed81611611565b92915050565b60008083601f840112610c0557600080fd5b8235905067ffffffffffffffff811115610c1e57600080fd5b602083019150836020820283011115610c3657600080fd5b9250929050565b600081359050610c4c81611628565b92915050565b600060408284031215610c6457600080fd5b81905092915050565b600060608284031215610c7f57600080fd5b81905092915050565b600060808284031215610c9a57600080fd5b81905092915050565b600060608284031215610cb557600080fd5b81905092915050565b600060208284031215610cd057600080fd5b6000610cde84828501610bde565b91505092915050565b60008060208385031215610cfa57600080fd5b600083013567ffffffffffffffff811115610d1457600080fd5b610d2085828601610bf3565b92509250509250929050565b600060208284031215610d3e57600080fd5b6000610d4c84828501610c3d565b91505092915050565b600060408284031215610d6757600080fd5b6000610d7584828501610c52565b91505092915050565b60008060008060c08587031215610d9457600080fd5b6000610da287828801610c6d565b9450506060610db387828801610c52565b93505060a085013567ffffffffffffffff811115610dd057600080fd5b610ddc87828801610bf3565b925092505092959194509250565b600060208284031215610dfc57600080fd5b600082013567ffffffffffffffff811115610e1657600080fd5b610e2284828501610c88565b91505092915050565b600060208284031215610e3d57600080fd5b600082013567ffffffffffffffff811115610e5757600080fd5b610e6384828501610ca3565b91505092915050565b6000610e788383610f26565b60208301905092915050565b610e8d816113b6565b82525050565b6000610e9e82611377565b610ea8818561138f565b9350610eb383611367565b8060005b83811015610ee4578151610ecb8882610e6c565b9750610ed683611382565b925050600181019050610eb7565b5085935050505092915050565b610efa816113c8565b82525050565b610f11610f0c826113d4565b61148c565b82525050565b610f2081611400565b82525050565b610f2f81611400565b82525050565b610f46610f4182611400565b611496565b82525050565b6000610f58838561139a565b9350610f65838584611434565b82840190509392505050565b6000610f7e6011836113a5565b9150610f89826114cf565b602082019050919050565b6000610fa1602d836113a5565b9150610fac826114f8565b604082019050919050565b6000610fc4602d836113a5565b9150610fcf82611547565b604082019050919050565b6000610fe76017836113a5565b9150610ff282611596565b602082019050919050565b600061100a6012836113a5565b9150611015826115bf565b602082019050919050565b600061102d600f836113a5565b9150611038826115e8565b602082019050919050565b61104c8161142a565b82525050565b600061105e8284610e93565b915081905092915050565b60006110758287610f00565b6001820191506110858286610f00565b6001820191506110958285610f35565b6020820191506110a58284610f35565b60208201915081905095945050505050565b60006110c4828486610f4c565b91508190509392505050565b60006020820190506110e56000830184610ef1565b92915050565b60006020820190506111006000830184610f17565b92915050565b600060608201905061111b6000830186610f17565b6111286020830185610e84565b6111356040830184611043565b949350505050565b60006080820190506111526000830187610f17565b61115f6020830186610e84565b61116c6040830185611043565b6111796060830184610f17565b95945050505050565b600060a0820190506111976000830188610f17565b6111a46020830187610e84565b6111b16040830186611043565b6111be6060830185611043565b6111cb6080830184610f17565b9695505050505050565b600060208201905081810360008301526111ee81610f71565b9050919050565b6000602082019050818103600083015261120e81610f94565b9050919050565b6000602082019050818103600083015261122e81610fb7565b9050919050565b6000602082019050818103600083015261124e81610fda565b9050919050565b6000602082019050818103600083015261126e81610ffd565b9050919050565b6000602082019050818103600083015261128e81611020565b9050919050565b600080833560016020038436030381126112ae57600080fd5b80840192508235915067ffffffffffffffff8211156112cc57600080fd5b6020830192506020820236038313156112e457600080fd5b509250929050565b6000808335600160200384360303811261130557600080fd5b80840192508235915067ffffffffffffffff82111561132357600080fd5b60208301925060018202360383131561133b57600080fd5b509250929050565b60008235600160800383360303811261135b57600080fd5b80830191505092915050565b6000819050602082019050919050565b600081519050919050565b6000602082019050919050565b600081905092915050565b600081905092915050565b600082825260208201905092915050565b60006113c18261140a565b9050919050565b60008115159050919050565b60007fff0000000000000000000000000000000000000000000000000000000000000082169050919050565b6000819050919050565b600073ffffffffffffffffffffffffffffffffffffffff82169050919050565b6000819050919050565b82818337600083830152505050565b600061144e8261142a565b91507fffffffffffffffffffffffffffffffffffffffffffffffffffffffffffffffff821415611481576114806114a0565b5b600182019050919050565b6000819050919050565b6000819050919050565b7f4e487b7100000000000000000000000000000000000000000000000000000000600052601160045260246000fd5b7f746f6b656e206861732065787069726564000000000000000000000000000000600082015250565b7f4163636f756e7453657373696f6e496e766f6b65723a2073656e646572206e6f60008201527f742077686974656c697374656400000000000000000000000000000000000000602082015250565b7f746f6b656e2063616e206f6e6c7920626520757365642062792064657369676e60008201527f617465642064656c656761746500000000000000000000000000000000000000602082015250565b7f4e6f207472616e73616374696f6e207061796c6f616473000000000000000000600082015250565b7f5472616e73616374696f6e206661696c65640000000000000000000000000000600082015250565b7f496e76616c69642062616c616e63650000000000000000000000000000000000600082015250565b61161a816113b6565b811461162557600080fd5b50565b611631816113c8565b811461163c57600080fd5b5056fea2646970667358221220265cd27a128ae8970be56a25ba306661145c95d96a63ecedc0acb87a79c6633a64736f6c637822302e382e322d63692e323032312e332e33312b636f6d6d69742e65653635346363330053",
  "linkReferences": {},
  "deployedLinkReferences": {}
}