{
  "_format": "hh-sol-artifact-1",
  "contractName": "AccountSessionInvoker",
  "sourceName": "contracts/AccountSessionInvoker.sol",
  "abi": [
    {
      "inputs": [
        {
          "internalType": "address[]",
          "name": "allowed",
          "type": "address[]"
        }
      ],
      "stateMutability": "nonpayable",
      "type": "constructor"
    },
    {
      "inputs": [],
      "name": "DOMAIN_SEPARATOR",
      "outputs": [
        {
          "internalType": "bytes32",
          "name": "",
          "type": "bytes32"
        }
      ],
      "stateMutability": "view",
      "type": "function"
    },
    {
      "inputs": [],
      "name": "EIP712DOMAIN_TYPE",
      "outputs": [
        {
          "internalType": "bytes32",
          "name": "",
          "type": "bytes32"
        }
      ],
      "stateMutability": "view",
      "type": "function"
    },
    {
      "inputs": [],
      "name": "SESSION_TOKEN_TYPE",
      "outputs": [
        {
          "internalType": "bytes32",
          "name": "",
          "type": "bytes32"
        }
      ],
      "stateMutability": "view",
      "type": "function"
    },
    {
      "inputs": [],
      "name": "TRANSACTION_PAYLOAD_TYPE",
      "outputs": [
        {
          "internalType": "bytes32",
          "name": "",
          "type": "bytes32"
        }
      ],
      "stateMutability": "view",
      "type": "function"
    },
    {
      "inputs": [],
      "name": "TRANSACTION_TYPE",
      "outputs": [
        {
          "internalType": "bytes32",
          "name": "",
          "type": "bytes32"
        }
      ],
      "stateMutability": "view",
      "type": "function"
    },
    {
      "inputs": [
        {
          "components": [
            {
              "internalType": "address",
              "name": "delegate",
              "type": "address"
            },
            {
              "internalType": "uint256",
              "name": "expiration",
              "type": "uint256"
            }
          ],
          "internalType": "struct AccountSessionInvoker.SessionToken",
          "name": "token",
          "type": "tuple"
        }
      ],
      "name": "getCommitHash",
      "outputs": [
        {
          "internalType": "bytes32",
          "name": "",
          "type": "bytes32"
        }
      ],
      "stateMutability": "view",
      "type": "function"
    },
    {
      "inputs": [
        {
          "components": [
            {
              "internalType": "address",
              "name": "to",
              "type": "address"
            },
            {
              "internalType": "uint256",
              "name": "value",
              "type": "uint256"
            },
            {
              "internalType": "uint256",
              "name": "gasLimit",
              "type": "uint256"
            },
            {
              "internalType": "bytes",
              "name": "data",
              "type": "bytes"
            }
          ],
          "internalType": "struct EIP3074Base.TransactionPayload",
          "name": "payload",
          "type": "tuple"
        }
      ],
      "name": "hashPayload",
      "outputs": [
        {
          "internalType": "bytes32",
          "name": "",
          "type": "bytes32"
        }
      ],
      "stateMutability": "pure",
      "type": "function"
    },
    {
      "inputs": [
        {
          "components": [
            {
              "internalType": "address",
              "name": "to",
              "type": "address"
            },
            {
              "internalType": "uint256",
              "name": "value",
              "type": "uint256"
            },
            {
              "internalType": "uint256",
              "name": "gasLimit",
              "type": "uint256"
            },
            {
              "internalType": "bytes",
              "name": "data",
              "type": "bytes"
            }
          ],
          "internalType": "struct EIP3074Base.TransactionPayload[]",
          "name": "payloads",
          "type": "tuple[]"
        }
      ],
      "name": "hashPayloads",
      "outputs": [
        {
          "internalType": "bytes32",
          "name": "",
          "type": "bytes32"
        }
      ],
      "stateMutability": "pure",
      "type": "function"
    },
    {
      "inputs": [
        {
          "components": [
            {
              "internalType": "address",
              "name": "delegate",
              "type": "address"
            },
            {
              "internalType": "uint256",
              "name": "expiration",
              "type": "uint256"
            }
          ],
          "internalType": "struct AccountSessionInvoker.SessionToken",
          "name": "token",
          "type": "tuple"
        }
      ],
      "name": "hashSessionToken",
      "outputs": [
        {
          "internalType": "bytes32",
          "name": "",
          "type": "bytes32"
        }
      ],
      "stateMutability": "pure",
      "type": "function"
    },
    {
      "inputs": [
        {
          "components": [
            {
              "internalType": "address",
              "name": "from",
              "type": "address"
            },
            {
              "internalType": "uint256",
              "name": "nonce",
              "type": "uint256"
            },
            {
              "components": [
                {
                  "internalType": "address",
                  "name": "to",
                  "type": "address"
                },
                {
                  "internalType": "uint256",
                  "name": "value",
                  "type": "uint256"
                },
                {
                  "internalType": "uint256",
                  "name": "gasLimit",
                  "type": "uint256"
                },
                {
                  "internalType": "bytes",
                  "name": "data",
                  "type": "bytes"
                }
              ],
              "internalType": "struct EIP3074Base.TransactionPayload[]",
              "name": "payloads",
              "type": "tuple[]"
            }
          ],
          "internalType": "struct EIP3074Base.Transaction",
          "name": "transaction",
          "type": "tuple"
        }
      ],
      "name": "hashTransaction",
      "outputs": [
        {
          "internalType": "bytes32",
          "name": "",
          "type": "bytes32"
        }
      ],
      "stateMutability": "pure",
      "type": "function"
    },
    {
      "inputs": [
        {
          "components": [
            {
              "internalType": "uint256",
              "name": "r",
              "type": "uint256"
            },
            {
              "internalType": "uint256",
              "name": "s",
              "type": "uint256"
            },
            {
              "internalType": "bool",
              "name": "v",
              "type": "bool"
            }
          ],
          "internalType": "struct EIP3074Base.Signature",
          "name": "signature",
          "type": "tuple"
        },
        {
          "components": [
            {
              "internalType": "address",
              "name": "delegate",
              "type": "address"
            },
            {
              "internalType": "uint256",
              "name": "expiration",
              "type": "uint256"
            }
          ],
          "internalType": "struct AccountSessionInvoker.SessionToken",
          "name": "token",
          "type": "tuple"
        },
        {
          "components": [
            {
              "internalType": "address",
              "name": "to",
              "type": "address"
            },
            {
              "internalType": "uint256",
              "name": "value",
              "type": "uint256"
            },
            {
              "internalType": "uint256",
              "name": "gasLimit",
              "type": "uint256"
            },
            {
              "internalType": "bytes",
              "name": "data",
              "type": "bytes"
            }
          ],
          "internalType": "struct EIP3074Base.TransactionPayload[]",
          "name": "payloads",
          "type": "tuple[]"
        }
      ],
      "name": "invoke",
      "outputs": [],
      "stateMutability": "payable",
      "type": "function"
    },
    {
      "inputs": [
        {
          "internalType": "address",
          "name": "addr",
          "type": "address"
        }
      ],
      "name": "isWhitelisted",
      "outputs": [
        {
          "internalType": "bool",
          "name": "",
          "type": "bool"
        }
      ],
      "stateMutability": "view",
      "type": "function"
    },
    {
      "inputs": [
        {
          "internalType": "address",
          "name": "",
          "type": "address"
        }
      ],
      "name": "whitelist",
      "outputs": [
        {
          "internalType": "bool",
          "name": "",
          "type": "bool"
        }
      ],
      "stateMutability": "view",
      "type": "function"
    }
  ],
  "bytecode": "0x60a06040523480156200001157600080fd5b5060405162001c4e38038062001c4e8339818101604052810190620000379190620002f3565b7f8b73c3c69bb8fe3d512ecc4cf759cc79239f7b179b0ffacaa9a75d522b39400f62000068620001c060201b60201c565b6040516020016200007a9190620003a2565b60405160208183030381529060405280519060200120620000a0620001fd60201b60201c565b604051602001620000b29190620003a2565b604051602081830303815290604052805190602001204630604051602001620000e0959493929190620003bb565b604051602081830303815290604052805190602001206080818152505060005b8151811015620001b857600160008084848151811062000149577f4e487b7100000000000000000000000000000000000000000000000000000000600052603260045260246000fd5b602002602001015173ffffffffffffffffffffffffffffffffffffffff1673ffffffffffffffffffffffffffffffffffffffff16815260200190815260200160002060006101000a81548160ff0219169083151502179055508080620001af906200053a565b91505062000100565b505062000611565b60606040518060400160405280601781526020017f4163636f756e742053657373696f6e20496e766f6b6572000000000000000000815250905090565b60606040518060400160405280600581526020017f312e302e30000000000000000000000000000000000000000000000000000000815250905090565b6000620002516200024b8462000441565b62000418565b905080838252602082019050828560208602820111156200027157600080fd5b60005b85811015620002a557816200028a8882620002af565b84526020840193506020830192505060018101905062000274565b5050509392505050565b600081519050620002c081620005f7565b92915050565b600082601f830112620002d857600080fd5b8151620002ea8482602086016200023a565b91505092915050565b6000602082840312156200030657600080fd5b600082015167ffffffffffffffff8111156200032157600080fd5b6200032f84828501620002c6565b91505092915050565b620003438162000486565b82525050565b62000354816200049a565b82525050565b6000620003678262000470565b6200037381856200047b565b935062000385818560208601620004ce565b80840191505092915050565b6200039c81620004c4565b82525050565b6000620003b082846200035a565b915081905092915050565b600060a082019050620003d2600083018862000349565b620003e1602083018762000349565b620003f0604083018662000349565b620003ff606083018562000391565b6200040e608083018462000338565b9695505050505050565b60006200042462000437565b905062000432828262000504565b919050565b6000604051905090565b600067ffffffffffffffff8211156200045f576200045e620005b7565b5b602082029050602081019050919050565b600081519050919050565b600081905092915050565b60006200049382620004a4565b9050919050565b6000819050919050565b600073ffffffffffffffffffffffffffffffffffffffff82169050919050565b6000819050919050565b60005b83811015620004ee578082015181840152602081019050620004d1565b83811115620004fe576000848401525b50505050565b6200050f82620005e6565b810181811067ffffffffffffffff82111715620005315762000530620005b7565b5b80604052505050565b60006200054782620004c4565b91507fffffffffffffffffffffffffffffffffffffffffffffffffffffffffffffffff8214156200057d576200057c62000588565b5b600182019050919050565b7f4e487b7100000000000000000000000000000000000000000000000000000000600052601160045260246000fd5b7f4e487b7100000000000000000000000000000000000000000000000000000000600052604160045260246000fd5b6000601f19601f8301169050919050565b620006028162000486565b81146200060e57600080fd5b50565b60805161161a62000634600039600081816107090152610933015261161a6000f3fe6080604052600436106100c25760003560e01c80636a4a37001161007f5780639f31537d116100595780639f31537d146102a7578063c994de72146102e4578063cc60f5451461030f578063e6d011c91461033a576100c2565b80636a4a370014610202578063902d17fe1461023f5780639b19251a1461026a576100c2565b806317fa74f6146100c75780631a772fc914610104578063277f00f7146101415780632b3ab52a1461017e5780633644e5151461019a5780633af32abf146101c5575b600080fd5b3480156100d357600080fd5b506100ee60048036038101906100e99190610d00565b610365565b6040516100fb9190611096565b60405180910390f35b34801561011057600080fd5b5061012b60048036038101906101269190610dd6565b6103cf565b6040516101389190611096565b60405180910390f35b34801561014d57600080fd5b5061016860048036038101906101639190610d95565b610452565b6040516101759190611096565b60405180910390f35b61019860048036038101906101939190610d29565b6104e9565b005b3480156101a657600080fd5b506101af610707565b6040516101bc9190611096565b60405180910390f35b3480156101d157600080fd5b506101ec60048036038101906101e79190610c69565b61072b565b6040516101f9919061107b565b60405180910390f35b34801561020e57600080fd5b5061022960048036038101906102249190610c92565b610780565b6040516102369190611096565b60405180910390f35b34801561024b57600080fd5b506102546108e1565b6040516102619190611096565b60405180910390f35b34801561027657600080fd5b50610291600480360381019061028c9190610c69565b610905565b60405161029e919061107b565b60405180910390f35b3480156102b357600080fd5b506102ce60048036038101906102c99190610d00565b610925565b6040516102db9190611096565b60405180910390f35b3480156102f057600080fd5b506102f961098b565b6040516103069190611096565b60405180910390f35b34801561031b57600080fd5b506103246109af565b6040516103319190611096565b60405180910390f35b34801561034657600080fd5b5061034f6109d3565b60405161035c9190611096565b60405180910390f35b60007fc105ba9475a0475d6c96cebee50e984cfc8788a6c6298a56d7c36fa87714ff0d82600001602081019061039b9190610c69565b83602001356040516020016103b2939291906110b1565b604051602081830303815290604052805190602001209050919050565b60007f7529970b4f063c924f645487213d764a6a833482519970db9631a3e144c245148260000160208101906104059190610c69565b836020013561042285806040019061041d9190611240565b610780565b60405160200161043594939291906110e8565b604051602081830303815290604052805190602001209050919050565b60007f7e78c6e5723a05fb86c72eb2f059bbce3bae9ed4ae123fab4e6b377b890618f18260000160208101906104889190610c69565b836020013584604001358580606001906104a29190611297565b6040516104b0929190611062565b60405180910390206040516020016104cc95949392919061112d565b604051602081830303815290604052805190602001209050919050565b6000828290501161052f576040517f08c379a0000000000000000000000000000000000000000000000000000000008152600401610526906111e0565b60405180910390fd5b600061053b85856109f7565b905042846020013510610583576040517f08c379a000000000000000000000000000000000000000000000000000000000815260040161057a906111a0565b60405180910390fd5b8360000160208101906105969190610c69565b73ffffffffffffffffffffffffffffffffffffffff163373ffffffffffffffffffffffffffffffffffffffff1614610603576040517f08c379a00000000000000000000000000000000000000000000000000000000081526004016105fa906111c0565b60405180910390fd5b60005b838390508110156106bc57600061066685858481811061064f577f4e487b7100000000000000000000000000000000000000000000000000000000600052603260045260246000fd5b905060200281019061066191906112ee565b610a3f565b9050806106a8576040517f08c379a000000000000000000000000000000000000000000000000000000000815260040161069f90611200565b60405180910390fd5b5080806106b4906113ee565b915050610606565b5060004714610700576040517f08c379a00000000000000000000000000000000000000000000000000000000081526004016106f790611220565b60405180910390fd5b5050505050565b7f000000000000000000000000000000000000000000000000000000000000000081565b60008060008373ffffffffffffffffffffffffffffffffffffffff1673ffffffffffffffffffffffffffffffffffffffff16815260200190815260200160002060009054906101000a900460ff169050919050565b6000808383905067ffffffffffffffff8111156107c6577f4e487b7100000000000000000000000000000000000000000000000000000000600052604160045260246000fd5b6040519080825280602002602001820160405280156107f45781602001602082028036833780820191505090505b50905060005b848490508110156108b057610858858583818110610841577f4e487b7100000000000000000000000000000000000000000000000000000000600052603260045260246000fd5b905060200281019061085391906112ee565b610452565b828281518110610891577f4e487b7100000000000000000000000000000000000000000000000000000000600052603260045260246000fd5b60200260200101818152505080806108a8906113ee565b9150506107fa565b50806040516020016108c29190610ffd565b6040516020818303038152906040528051906020012091505092915050565b7fc105ba9475a0475d6c96cebee50e984cfc8788a6c6298a56d7c36fa87714ff0d81565b60006020528060005260406000206000915054906101000a900460ff1681565b6000601960f81b600160f81b7f000000000000000000000000000000000000000000000000000000000000000061095b85610365565b60405160200161096e9493929190611014565b604051602081830303815290604052805190602001209050919050565b7f8b73c3c69bb8fe3d512ecc4cf759cc79239f7b179b0ffacaa9a75d522b39400f81565b7f7e78c6e5723a05fb86c72eb2f059bbce3bae9ed4ae123fab4e6b377b890618f181565b7f7529970b4f063c924f645487213d764a6a833482519970db9631a3e144c2451481565b600080610a0383610925565b90506000846000013590506000856020013590506000866040016020810190610a2c9190610cd7565b905081838286f694505050505092915050565b600080826040013590506000836000016020810190610a5e9190610c69565b90506000846020013590506000858060600190610a7b9190611297565b8080601f016020809104026020016040519081016040528093929190818152602001838380828437600081840152601f19601f820116905080830192505050505050509050610ac986610b22565b610b08576040517f08c379a0000000000000000000000000000000000000000000000000000000008152600401610aff90611180565b60405180910390fd5b600080825160208401600086888af7945050505050919050565b6000806000836000016020810190610b3a9190610c69565b73ffffffffffffffffffffffffffffffffffffffff1673ffffffffffffffffffffffffffffffffffffffff16815260200190815260200160002060009054906101000a900460ff169050919050565b600081359050610b9881611596565b92915050565b60008083601f840112610bb057600080fd5b8235905067ffffffffffffffff811115610bc957600080fd5b602083019150836020820283011115610be157600080fd5b9250929050565b600081359050610bf7816115ad565b92915050565b600060408284031215610c0f57600080fd5b81905092915050565b600060608284031215610c2a57600080fd5b81905092915050565b600060808284031215610c4557600080fd5b81905092915050565b600060608284031215610c6057600080fd5b81905092915050565b600060208284031215610c7b57600080fd5b6000610c8984828501610b89565b91505092915050565b60008060208385031215610ca557600080fd5b600083013567ffffffffffffffff811115610cbf57600080fd5b610ccb85828601610b9e565b92509250509250929050565b600060208284031215610ce957600080fd5b6000610cf784828501610be8565b91505092915050565b600060408284031215610d1257600080fd5b6000610d2084828501610bfd565b91505092915050565b60008060008060c08587031215610d3f57600080fd5b6000610d4d87828801610c18565b9450506060610d5e87828801610bfd565b93505060a085013567ffffffffffffffff811115610d7b57600080fd5b610d8787828801610b9e565b925092505092959194509250565b600060208284031215610da757600080fd5b600082013567ffffffffffffffff811115610dc157600080fd5b610dcd84828501610c33565b91505092915050565b600060208284031215610de857600080fd5b600082013567ffffffffffffffff811115610e0257600080fd5b610e0e84828501610c4e565b91505092915050565b6000610e238383610ed1565b60208301905092915050565b610e3881611361565b82525050565b6000610e4982611322565b610e53818561133a565b9350610e5e83611312565b8060005b83811015610e8f578151610e768882610e17565b9750610e818361132d565b925050600181019050610e62565b5085935050505092915050565b610ea581611373565b82525050565b610ebc610eb78261137f565b611437565b82525050565b610ecb816113ab565b82525050565b610eda816113ab565b82525050565b610ef1610eec826113ab565b611441565b82525050565b6000610f038385611345565b9350610f108385846113df565b82840190509392505050565b6000610f29601983611350565b9150610f348261147a565b602082019050919050565b6000610f4c601183611350565b9150610f57826114a3565b602082019050919050565b6000610f6f602d83611350565b9150610f7a826114cc565b604082019050919050565b6000610f92601783611350565b9150610f9d8261151b565b602082019050919050565b6000610fb5601283611350565b9150610fc082611544565b602082019050919050565b6000610fd8600f83611350565b9150610fe38261156d565b602082019050919050565b610ff7816113d5565b82525050565b60006110098284610e3e565b915081905092915050565b60006110208287610eab565b6001820191506110308286610eab565b6001820191506110408285610ee0565b6020820191506110508284610ee0565b60208201915081905095945050505050565b600061106f828486610ef7565b91508190509392505050565b60006020820190506110906000830184610e9c565b92915050565b60006020820190506110ab6000830184610ec2565b92915050565b60006060820190506110c66000830186610ec2565b6110d36020830185610e2f565b6110e06040830184610fee565b949350505050565b60006080820190506110fd6000830187610ec2565b61110a6020830186610e2f565b6111176040830185610fee565b6111246060830184610ec2565b95945050505050565b600060a0820190506111426000830188610ec2565b61114f6020830187610e2f565b61115c6040830186610fee565b6111696060830185610fee565b6111766080830184610ec2565b9695505050505050565b6000602082019050818103600083015261119981610f1c565b9050919050565b600060208201905081810360008301526111b981610f3f565b9050919050565b600060208201905081810360008301526111d981610f62565b9050919050565b600060208201905081810360008301526111f981610f85565b9050919050565b6000602082019050818103600083015261121981610fa8565b9050919050565b6000602082019050818103600083015261123981610fcb565b9050919050565b6000808335600160200384360303811261125957600080fd5b80840192508235915067ffffffffffffffff82111561127757600080fd5b60208301925060208202360383131561128f57600080fd5b509250929050565b600080833560016020038436030381126112b057600080fd5b80840192508235915067ffffffffffffffff8211156112ce57600080fd5b6020830192506001820236038313156112e657600080fd5b509250929050565b60008235600160800383360303811261130657600080fd5b80830191505092915050565b6000819050602082019050919050565b600081519050919050565b6000602082019050919050565b600081905092915050565b600081905092915050565b600082825260208201905092915050565b600061136c826113b5565b9050919050565b60008115159050919050565b60007fff0000000000000000000000000000000000000000000000000000000000000082169050919050565b6000819050919050565b600073ffffffffffffffffffffffffffffffffffffffff82169050919050565b6000819050919050565b82818337600083830152505050565b60006113f9826113d5565b91507fffffffffffffffffffffffffffffffffffffffffffffffffffffffffffffffff82141561142c5761142b61144b565b5b600182019050919050565b6000819050919050565b6000819050919050565b7f4e487b7100000000000000000000000000000000000000000000000000000000600052601160045260246000fd5b7f7061796c6f61642076616c69646174696f6e206661696c656400000000000000600082015250565b7f746f6b656e206861732065787069726564000000000000000000000000000000600082015250565b7f746f6b656e2063616e206f6e6c7920626520757365642062792064657369676e60008201527f617465642064656c656761746500000000000000000000000000000000000000602082015250565b7f4e6f207472616e73616374696f6e207061796c6f616473000000000000000000600082015250565b7f5472616e73616374696f6e206661696c65640000000000000000000000000000600082015250565b7f496e76616c69642062616c616e63650000000000000000000000000000000000600082015250565b61159f81611361565b81146115aa57600080fd5b50565b6115b681611373565b81146115c157600080fd5b5056fea26469706673582212207291488f099e789bb9fc2c8c507f6c5455abb0ff361757e26d481b4b7947550964736f6c637822302e382e322d63692e323032312e332e33312b636f6d6d69742e65653635346363330053",
  "linkReferences": {},
  "deployedLinkReferences": {}
}