{
  "_format": "hh-sol-artifact-1",
  "contractName": "EIP3074Relayer",
  "sourceName": "contracts/EIP3074Relayer.sol",
  "abi": [
    {
      "anonymous": false,
      "inputs": [
        {
          "indexed": true,
          "internalType": "address",
          "name": "previousOwner",
          "type": "address"
        },
        {
          "indexed": true,
          "internalType": "address",
          "name": "newOwner",
          "type": "address"
        }
      ],
      "name": "OwnershipTransferred",
      "type": "event"
    },
    {
      "inputs": [
        {
          "internalType": "address",
          "name": "",
          "type": "address"
        }
      ],
      "name": "nonces",
      "outputs": [
        {
          "internalType": "uint256",
          "name": "",
          "type": "uint256"
        }
      ],
      "stateMutability": "view",
      "type": "function"
    },
    {
      "inputs": [],
      "name": "owner",
      "outputs": [
        {
          "internalType": "address",
          "name": "",
          "type": "address"
        }
      ],
      "stateMutability": "view",
      "type": "function"
    },
    {
      "inputs": [
        {
          "components": [
            {
              "internalType": "address",
              "name": "sponsee",
              "type": "address"
            },
            {
              "internalType": "uint256",
              "name": "nextra",
              "type": "uint256"
            },
            {
              "internalType": "address",
              "name": "to",
              "type": "address"
            },
            {
              "internalType": "uint256",
              "name": "mingas",
              "type": "uint256"
            },
            {
              "internalType": "uint256",
              "name": "value",
              "type": "uint256"
            },
            {
              "internalType": "bytes",
              "name": "data",
              "type": "bytes"
            },
            {
              "internalType": "uint8",
              "name": "v",
              "type": "uint8"
            },
            {
              "internalType": "bytes32",
              "name": "r",
              "type": "bytes32"
            },
            {
              "internalType": "bytes32",
              "name": "s",
              "type": "bytes32"
            }
          ],
          "internalType": "struct EIP3074Relayer.tlpSponsored",
          "name": "paymentTx",
          "type": "tuple"
        },
        {
          "components": [
            {
              "internalType": "address",
              "name": "sponsee",
              "type": "address"
            },
            {
              "internalType": "uint256",
              "name": "nextra",
              "type": "uint256"
            },
            {
              "internalType": "address",
              "name": "to",
              "type": "address"
            },
            {
              "internalType": "uint256",
              "name": "mingas",
              "type": "uint256"
            },
            {
              "internalType": "uint256",
              "name": "value",
              "type": "uint256"
            },
            {
              "internalType": "bytes",
              "name": "data",
              "type": "bytes"
            },
            {
              "internalType": "uint8",
              "name": "v",
              "type": "uint8"
            },
            {
              "internalType": "bytes32",
              "name": "r",
              "type": "bytes32"
            },
            {
              "internalType": "bytes32",
              "name": "s",
              "type": "bytes32"
            }
          ],
          "internalType": "struct EIP3074Relayer.tlpSponsored[]",
          "name": "sponsoredTxs",
          "type": "tuple[]"
        }
      ],
      "name": "relay",
      "outputs": [],
      "stateMutability": "nonpayable",
      "type": "function"
    },
    {
      "inputs": [],
      "name": "renounceOwnership",
      "outputs": [],
      "stateMutability": "nonpayable",
      "type": "function"
    },
    {
      "inputs": [
        {
          "internalType": "address",
          "name": "newOwner",
          "type": "address"
        }
      ],
      "name": "transferOwnership",
      "outputs": [],
      "stateMutability": "nonpayable",
      "type": "function"
    },
    {
      "inputs": [
        {
          "internalType": "address",
          "name": "target",
          "type": "address"
        }
      ],
      "name": "withdraw",
      "outputs": [],
      "stateMutability": "nonpayable",
      "type": "function"
    }
  ],
  "bytecode": "0x608060405234801561001057600080fd5b5061002d61002261003260201b60201c565b61003a60201b60201c565b6100fe565b600033905090565b60008060009054906101000a900473ffffffffffffffffffffffffffffffffffffffff169050816000806101000a81548173ffffffffffffffffffffffffffffffffffffffff021916908373ffffffffffffffffffffffffffffffffffffffff1602179055508173ffffffffffffffffffffffffffffffffffffffff168173ffffffffffffffffffffffffffffffffffffffff167f8be0079c531659141344cd1fd0a4f28419497f9722a3daafe3b4186f6b6457e060405160405180910390a35050565b61171e8061010d6000396000f3fe608060405234801561001057600080fd5b50600436106100625760003560e01c806351cff8d914610067578063715018a6146100835780637ecebe001461008d5780638da5cb5b146100bd578063e2f27b9b146100db578063f2fde38b146100f7575b600080fd5b610081600480360381019061007c9190610ef4565b610113565b005b61008b61025e565b005b6100a760048036038101906100a29190610ef4565b610272565b6040516100b491906111de565b60405180910390f35b6100c561028a565b6040516100d291906110da565b60405180910390f35b6100f560048036038101906100f09190610f46565b6102b3565b005b610111600480360381019061010c9190610ef4565b610abe565b005b61011b610b42565b73c02aaa39b223fe8d0a0e5c4f27ead9083c756cc273ffffffffffffffffffffffffffffffffffffffff1663a9059cbb8273c02aaa39b223fe8d0a0e5c4f27ead9083c756cc273ffffffffffffffffffffffffffffffffffffffff166370a08231306040518263ffffffff1660e01b815260040161019991906110da565b602060405180830381600087803b1580156101b357600080fd5b505af11580156101c7573d6000803e3d6000fd5b505050506040513d601f19601f820116820180604052508101906101eb9190610fb2565b6040518363ffffffff1660e01b81526004016102089291906110f5565b602060405180830381600087803b15801561022257600080fd5b505af1158015610236573d6000803e3d6000fd5b505050506040513d601f19601f8201168201806040525081019061025a9190610f1d565b5050565b610266610b42565b6102706000610bc0565b565b60016020528060005260406000206000915090505481565b60008060009054906101000a900473ffffffffffffffffffffffffffffffffffffffff16905090565b6102bb610b42565b60005a9050600073c02aaa39b223fe8d0a0e5c4f27ead9083c756cc273ffffffffffffffffffffffffffffffffffffffff166370a08231306040518263ffffffff1660e01b815260040161030f91906110da565b602060405180830381600087803b15801561032957600080fd5b505af115801561033d573d6000803e3d6000fd5b505050506040513d601f19601f820116820180604052508101906103619190610fb2565b905060003a90506000845190506000866000015190506000600160008373ffffffffffffffffffffffffffffffffffffffff1673ffffffffffffffffffffffffffffffffffffffff16815260200190815260200160002054905060018060008473ffffffffffffffffffffffffffffffffffffffff1673ffffffffffffffffffffffffffffffffffffffff168152602001908152602001600020600082825461040a91906112ec565b9250508190555080600084604051602001610427939291906111f9565b6040516020818303038152906040528051906020012060001c886020015114610485576040517f08c379a000000000000000000000000000000000000000000000000000000000815260040161047c9061117e565b60405180910390fd5b61048e88610c84565b6104cd576040517f08c379a00000000000000000000000000000000000000000000000000000000081526004016104c4906111be565b60405180910390fd5b60008573c02aaa39b223fe8d0a0e5c4f27ead9083c756cc273ffffffffffffffffffffffffffffffffffffffff166370a08231306040518263ffffffff1660e01b815260040161051d91906110da565b602060405180830381600087803b15801561053757600080fd5b505af115801561054b573d6000803e3d6000fd5b505050506040513d601f19601f8201168201806040525081019061056f9190610fb2565b610579919061139c565b905060008960600151905060008a60800151905060005b8681101561064f578a81815181106105d1577f4e487b7100000000000000000000000000000000000000000000000000000000600052603260045260246000fd5b602002602001015160600151836105e891906112ec565b92508a8181518110610623577f4e487b7100000000000000000000000000000000000000000000000000000000600052603260045260246000fd5b6020026020010151608001518261063a91906112ec565b9150808061064790611481565b915050610590565b5060008261271061753061066391906112ec565b61066d91906112ec565b886106789190611342565b8261068391906112ec565b9050808410156106c8576040517f08c379a00000000000000000000000000000000000000000000000000000000081526004016106bf9061115e565b60405180910390fd5b60008211156107515773c02aaa39b223fe8d0a0e5c4f27ead9083c756cc273ffffffffffffffffffffffffffffffffffffffff16632e1a7d4d836040518263ffffffff1660e01b815260040161071e91906111de565b600060405180830381600087803b15801561073857600080fd5b505af115801561074c573d6000803e3d6000fd5b505050505b60005b87811015610928578673ffffffffffffffffffffffffffffffffffffffff168c82815181106107ac577f4e487b7100000000000000000000000000000000000000000000000000000000600052603260045260246000fd5b60200260200101516000015173ffffffffffffffffffffffffffffffffffffffff161461080e576040517f08c379a00000000000000000000000000000000000000000000000000000000081526004016108059061113e565b60405180910390fd5b8560018261081c91906112ec565b60405160200161082d929190611230565b6040516020818303038152906040528051906020012060001c8c828151811061087f577f4e487b7100000000000000000000000000000000000000000000000000000000600052603260045260246000fd5b602002602001015160200151146108cb576040517f08c379a00000000000000000000000000000000000000000000000000000000081526004016108c29061117e565b60405180910390fd5b6109148c8281518110610907577f4e487b7100000000000000000000000000000000000000000000000000000000600052603260045260246000fd5b6020026020010151610c84565b50808061092090611481565b915050610754565b50600047905060008111156109ad5773c02aaa39b223fe8d0a0e5c4f27ead9083c756cc273ffffffffffffffffffffffffffffffffffffffff1663d0e30db0826040518263ffffffff1660e01b81526004016000604051808303818588803b15801561099357600080fd5b505af11580156109a7573d6000803e3d6000fd5b50505050505b60006113885a8d6175306109c191906112ec565b6109cb919061139c565b6109d591906112ec565b8a6109e09190611342565b82856109ec919061139c565b6109f691906112ec565b905085811015610aae5773c02aaa39b223fe8d0a0e5c4f27ead9083c756cc273ffffffffffffffffffffffffffffffffffffffff1663a9059cbb898389610a3d919061139c565b6040518363ffffffff1660e01b8152600401610a5a9291906110f5565b602060405180830381600087803b158015610a7457600080fd5b505af1158015610a88573d6000803e3d6000fd5b505050506040513d601f19601f82011682018060405250810190610aac9190610f1d565b505b5050505050505050505050505050565b610ac6610b42565b600073ffffffffffffffffffffffffffffffffffffffff168173ffffffffffffffffffffffffffffffffffffffff161415610b36576040517f08c379a0000000000000000000000000000000000000000000000000000000008152600401610b2d9061111e565b60405180910390fd5b610b3f81610bc0565b50565b610b4a610c8b565b73ffffffffffffffffffffffffffffffffffffffff16610b6861028a565b73ffffffffffffffffffffffffffffffffffffffff1614610bbe576040517f08c379a0000000000000000000000000000000000000000000000000000000008152600401610bb59061119e565b60405180910390fd5b565b60008060009054906101000a900473ffffffffffffffffffffffffffffffffffffffff169050816000806101000a81548173ffffffffffffffffffffffffffffffffffffffff021916908373ffffffffffffffffffffffffffffffffffffffff1602179055508173ffffffffffffffffffffffffffffffffffffffff168173ffffffffffffffffffffffffffffffffffffffff167f8be0079c531659141344cd1fd0a4f28419497f9722a3daafe3b4186f6b6457e060405160405180910390a35050565b6000919050565b600033905090565b6000610ca6610ca18461127e565b611259565b9050808382526020820190508260005b85811015610ce65781358501610ccc8882610dc1565b845260208401935060208301925050600181019050610cb6565b5050509392505050565b6000610d03610cfe846112aa565b611259565b905082815260208101848484011115610d1b57600080fd5b610d26848285611441565b509392505050565b600081359050610d3d81611655565b92915050565b600082601f830112610d5457600080fd5b8135610d64848260208601610c93565b91505092915050565b600081519050610d7c8161166c565b92915050565b600081359050610d9181611683565b92915050565b600082601f830112610da857600080fd5b8135610db8848260208601610cf0565b91505092915050565b60006101208284031215610dd457600080fd5b610ddf610120611259565b90506000610def84828501610d2e565b6000830152506020610e0384828501610eb5565b6020830152506040610e1784828501610d2e565b6040830152506060610e2b84828501610eb5565b6060830152506080610e3f84828501610eb5565b60808301525060a082013567ffffffffffffffff811115610e5f57600080fd5b610e6b84828501610d97565b60a08301525060c0610e7f84828501610edf565b60c08301525060e0610e9384828501610d82565b60e083015250610100610ea884828501610d82565b6101008301525092915050565b600081359050610ec48161169a565b92915050565b600081519050610ed98161169a565b92915050565b600081359050610eee816116b1565b92915050565b600060208284031215610f0657600080fd5b6000610f1484828501610d2e565b91505092915050565b600060208284031215610f2f57600080fd5b6000610f3d84828501610d6d565b91505092915050565b60008060408385031215610f5957600080fd5b600083013567ffffffffffffffff811115610f7357600080fd5b610f7f85828601610dc1565b925050602083013567ffffffffffffffff811115610f9c57600080fd5b610fa885828601610d43565b9150509250929050565b600060208284031215610fc457600080fd5b6000610fd284828501610eca565b91505092915050565b610fe4816113d0565b82525050565b610ff38161142f565b82525050565b60006110066026836112db565b915061101182611539565b604082019050919050565b60006110296011836112db565b915061103482611588565b602082019050919050565b600061104c6014836112db565b9150611057826115b1565b602082019050919050565b600061106f6010836112db565b915061107a826115da565b602082019050919050565b60006110926020836112db565b915061109d82611603565b602082019050919050565b60006110b56014836112db565b91506110c08261162c565b602082019050919050565b6110d481611418565b82525050565b60006020820190506110ef6000830184610fdb565b92915050565b600060408201905061110a6000830185610fdb565b61111760208301846110cb565b9392505050565b6000602082019050818103600083015261113781610ff9565b9050919050565b600060208201905081810360008301526111578161101c565b9050919050565b600060208201905081810360008301526111778161103f565b9050919050565b6000602082019050818103600083015261119781611062565b9050919050565b600060208201905081810360008301526111b781611085565b9050919050565b600060208201905081810360008301526111d7816110a8565b9050919050565b60006020820190506111f360008301846110cb565b92915050565b600060608201905061120e60008301866110cb565b61121b6020830185610fea565b61122860408301846110cb565b949350505050565b600060408201905061124560008301856110cb565b61125260208301846110cb565b9392505050565b6000611263611274565b905061126f8282611450565b919050565b6000604051905090565b600067ffffffffffffffff821115611299576112986114f9565b5b602082029050602081019050919050565b600067ffffffffffffffff8211156112c5576112c46114f9565b5b6112ce82611528565b9050602081019050919050565b600082825260208201905092915050565b60006112f782611418565b915061130283611418565b9250827fffffffffffffffffffffffffffffffffffffffffffffffffffffffffffffffff03821115611337576113366114ca565b5b828201905092915050565b600061134d82611418565b915061135883611418565b9250817fffffffffffffffffffffffffffffffffffffffffffffffffffffffffffffffff0483118215151615611391576113906114ca565b5b828202905092915050565b60006113a782611418565b91506113b283611418565b9250828210156113c5576113c46114ca565b5b828203905092915050565b60006113db826113f8565b9050919050565b60008115159050919050565b6000819050919050565b600073ffffffffffffffffffffffffffffffffffffffff82169050919050565b6000819050919050565b600060ff82169050919050565b600061143a82611422565b9050919050565b82818337600083830152505050565b61145982611528565b810181811067ffffffffffffffff82111715611478576114776114f9565b5b80604052505050565b600061148c82611418565b91507fffffffffffffffffffffffffffffffffffffffffffffffffffffffffffffffff8214156114bf576114be6114ca565b5b600182019050919050565b7f4e487b7100000000000000000000000000000000000000000000000000000000600052601160045260246000fd5b7f4e487b7100000000000000000000000000000000000000000000000000000000600052604160045260246000fd5b6000601f19601f8301169050919050565b7f4f776e61626c653a206e6577206f776e657220697320746865207a65726f206160008201527f6464726573730000000000000000000000000000000000000000000000000000602082015250565b7f696e636f72726563742073706f6e736565000000000000000000000000000000600082015250565b7f696e73756666696369656e74207061796d656e74000000000000000000000000600082015250565b7f696e636f7272656374206e657874726100000000000000000000000000000000600082015250565b7f4f776e61626c653a2063616c6c6572206973206e6f7420746865206f776e6572600082015250565b7f756e7375636365737366756c207061796d656e74000000000000000000000000600082015250565b61165e816113d0565b811461166957600080fd5b50565b611675816113e2565b811461168057600080fd5b50565b61168c816113ee565b811461169757600080fd5b50565b6116a381611418565b81146116ae57600080fd5b50565b6116ba81611422565b81146116c557600080fd5b5056fea2646970667358221220f3cd8600246af006994d861b8b08d2aa19223282c36028a3f8ea560111898aab64736f6c637822302e382e322d63692e323032312e332e33312b636f6d6d69742e65653635346363330053",
  "linkReferences": {},
  "deployedLinkReferences": {}
}