{
  "_format": "hh-sol-artifact-1",
  "contractName": "MockContract",
  "sourceName": "contracts/MockContract.sol",
  "abi": [
    {
      "inputs": [],
      "name": "causeRevert",
      "outputs": [],
      "stateMutability": "payable",
      "type": "function"
    },
    {
      "inputs": [],
      "name": "counter",
      "outputs": [
        {
          "internalType": "uint256",
          "name": "",
          "type": "uint256"
        }
      ],
      "stateMutability": "view",
      "type": "function"
    },
    {
      "inputs": [],
      "name": "increment",
      "outputs": [],
      "stateMutability": "payable",
      "type": "function"
    },
    {
      "inputs": [],
      "name": "lastSender",
      "outputs": [
        {
          "internalType": "address",
          "name": "",
          "type": "address"
        }
      ],
      "stateMutability": "view",
      "type": "function"
    },
    {
      "inputs": [],
      "name": "reset",
      "outputs": [],
      "stateMutability": "nonpayable",
      "type": "function"
    }
  ],
  "bytecode": "0x608060405234801561001057600080fd5b5061039e806100206000396000f3fe60806040526004361061004a5760003560e01c8063256fec881461004f57806361bc221a1461007a57806367192b63146100a5578063d09de08a146100af578063d826f88f146100b9575b600080fd5b34801561005b57600080fd5b506100646100d0565b6040516100719190610250565b60405180910390f35b34801561008657600080fd5b5061008f6100f4565b60405161009c919061026b565b60405180910390f35b6100ad6100fa565b005b6100b76100ff565b005b3480156100c557600080fd5b506100ce610157565b005b60008054906101000a900473ffffffffffffffffffffffffffffffffffffffff1681565b60015481565b600080fd5b336000806101000a81548173ffffffffffffffffffffffffffffffffffffffff021916908373ffffffffffffffffffffffffffffffffffffffff16021790555060016000815461014e906102cd565b91905081905550565b6000806101000a81549073ffffffffffffffffffffffffffffffffffffffff021916905560016000905560003373ffffffffffffffffffffffffffffffffffffffff16476040516101a79061023b565b60006040518083038185875af1925050503d80600081146101e4576040519150601f19603f3d011682016040523d82523d6000602084013e6101e9565b606091505b50509050806101f757600080fd5b50565b61020381610291565b82525050565b6000610216600083610286565b915061022182610345565b600082019050919050565b610235816102c3565b82525050565b600061024682610209565b9150819050919050565b600060208201905061026560008301846101fa565b92915050565b6000602082019050610280600083018461022c565b92915050565b600081905092915050565b600061029c826102a3565b9050919050565b600073ffffffffffffffffffffffffffffffffffffffff82169050919050565b6000819050919050565b60006102d8826102c3565b91507fffffffffffffffffffffffffffffffffffffffffffffffffffffffffffffffff82141561030b5761030a610316565b5b600182019050919050565b7f4e487b7100000000000000000000000000000000000000000000000000000000600052601160045260246000fd5b5056fea2646970667358221220de4a23a5eae06f398cc813ac4083b0c72c9c521a8b970c33c9cb039e1ed5726564736f6c637822302e382e322d63692e323032312e332e33312b636f6d6d69742e65653635346363330053",
  "linkReferences": {},
  "deployedLinkReferences": {}
}