{
  "_format": "hh-sol-artifact-1",
  "contractName": "HRM",
  "sourceName": "contracts/Gretter.sol",
  "abi": [
    {
      "inputs": [
        {
          "internalType": "int256",
          "name": "_id",
          "type": "int256"
        },
        {
          "internalType": "string",
          "name": "_name",
          "type": "string"
        },
        {
          "components": [
            {
              "internalType": "string",
              "name": "name",
              "type": "string"
            },
            {
              "internalType": "uint128",
              "name": "number",
              "type": "uint128"
            },
            {
              "internalType": "bool",
              "name": "flag",
              "type": "bool"
            },
            {
              "components": [
                {
                  "internalType": "address",
                  "name": "addr",
                  "type": "address"
                },
                {
                  "internalType": "string",
                  "name": "name",
                  "type": "string"
                },
                {
                  "internalType": "int128",
                  "name": "number",
                  "type": "int128"
                }
              ],
              "internalType": "struct HRM.Human[]",
              "name": "people",
              "type": "tuple[]"
            }
          ],
          "internalType": "struct HRM.ArgGroup[]",
          "name": "_groups",
          "type": "tuple[]"
        }
      ],
      "stateMutability": "nonpayable",
      "type": "constructor"
    },
    {
      "inputs": [
        {
          "internalType": "uint256",
          "name": "index",
          "type": "uint256"
        }
      ],
      "name": "getGroupFlag",
      "outputs": [
        {
          "internalType": "bool",
          "name": "",
          "type": "bool"
        }
      ],
      "stateMutability": "view",
      "type": "function"
    },
    {
      "inputs": [
        {
          "internalType": "uint256",
          "name": "index",
          "type": "uint256"
        }
      ],
      "name": "getGroupName",
      "outputs": [
        {
          "internalType": "string",
          "name": "",
          "type": "string"
        }
      ],
      "stateMutability": "view",
      "type": "function"
    },
    {
      "inputs": [
        {
          "internalType": "uint256",
          "name": "index",
          "type": "uint256"
        }
      ],
      "name": "getGroupNumber",
      "outputs": [
        {
          "internalType": "uint128",
          "name": "",
          "type": "uint128"
        }
      ],
      "stateMutability": "view",
      "type": "function"
    },
    {
      "inputs": [
        {
          "internalType": "uint256",
          "name": "groupIndex",
          "type": "uint256"
        },
        {
          "internalType": "uint256",
          "name": "humanIndex",
          "type": "uint256"
        }
      ],
      "name": "getHumanAddr",
      "outputs": [
        {
          "internalType": "address",
          "name": "",
          "type": "address"
        }
      ],
      "stateMutability": "view",
      "type": "function"
    },
    {
      "inputs": [
        {
          "internalType": "uint256",
          "name": "groupIndex",
          "type": "uint256"
        },
        {
          "internalType": "uint256",
          "name": "humanIndex",
          "type": "uint256"
        }
      ],
      "name": "getHumanName",
      "outputs": [
        {
          "internalType": "string",
          "name": "",
          "type": "string"
        }
      ],
      "stateMutability": "view",
      "type": "function"
    },
    {
      "inputs": [
        {
          "internalType": "uint256",
          "name": "groupIndex",
          "type": "uint256"
        },
        {
          "internalType": "uint256",
          "name": "humanIndex",
          "type": "uint256"
        }
      ],
      "name": "getHumanNumber",
      "outputs": [
        {
          "internalType": "int128",
          "name": "",
          "type": "int128"
        }
      ],
      "stateMutability": "view",
      "type": "function"
    },
    {
      "inputs": [],
      "name": "getID",
      "outputs": [
        {
          "internalType": "int256",
          "name": "",
          "type": "int256"
        }
      ],
      "stateMutability": "view",
      "type": "function"
    },
    {
      "inputs": [],
      "name": "getName",
      "outputs": [
        {
          "internalType": "string",
          "name": "",
          "type": "string"
        }
      ],
      "stateMutability": "view",
      "type": "function"
    }
  ],
  "bytecode": "0x60806040523480156200001157600080fd5b506040516200151e3803806200151e83398181016040528101906200003791906200085f565b82600081905550816001908051906020019062000056929190620003cf565b5060005b8151811015620003c5576002604051806060016040528084848151811062000087576200008662000b81565b5b6020026020010151600001518152602001848481518110620000ae57620000ad62000b81565b5b6020026020010151602001516fffffffffffffffffffffffffffffffff168152602001848481518110620000e757620000e662000b81565b5b6020026020010151604001511515815250908060018154018082558091505060019003906000526020600020906002020160009091909190915060008201518160000190805190602001906200013f929190620003cf565b5060208201518160010160006101000a8154816fffffffffffffffffffffffffffffffff02191690836fffffffffffffffffffffffffffffffff16021790555060408201518160010160106101000a81548160ff021916908315150217905550505060005b828281518110620001ba57620001b962000b81565b5b60200260200101516060015151811015620003ae576040518060600160405280848481518110620001f057620001ef62000b81565b5b602002602001015160600151838151811062000211576200021062000b81565b5b60200260200101516000015173ffffffffffffffffffffffffffffffffffffffff1681526020018484815181106200024e576200024d62000b81565b5b60200260200101516060015183815181106200026f576200026e62000b81565b5b602002602001015160200151815260200184848151811062000296576200029562000b81565b5b6020026020010151606001518381518110620002b757620002b662000b81565b5b602002602001015160400151600f0b81525060036000848152602001908152602001600020600083815260200190815260200160002060008201518160000160006101000a81548173ffffffffffffffffffffffffffffffffffffffff021916908373ffffffffffffffffffffffffffffffffffffffff160217905550602082015181600101908051906020019062000352929190620003cf565b5060408201518160020160006101000a8154816fffffffffffffffffffffffffffffffff0219169083600f0b6fffffffffffffffffffffffffffffffff1602179055509050508080620003a59062000ad5565b915050620001a4565b508080620003bc9062000ad5565b9150506200005a565b5050505062000c95565b828054620003dd9062000a69565b90600052602060002090601f0160209004810192826200040157600085556200044d565b82601f106200041c57805160ff19168380011785556200044d565b828001600101855582156200044d579182015b828111156200044c5782518255916020019190600101906200042f565b5b5090506200045c919062000460565b5090565b5b808211156200047b57600081600090555060010162000461565b5090565b600062000496620004908462000922565b620008f9565b90508083825260208201905082856020860282011115620004bc57620004bb62000bee565b5b60005b858110156200051157815167ffffffffffffffff811115620004e657620004e562000bdf565b5b808601620004f58982620006f7565b85526020850194506020840193505050600181019050620004bf565b5050509392505050565b6000620005326200052c8462000951565b620008f9565b9050808382526020820190508285602086028201111562000558576200055762000bee565b5b60005b85811015620005ad57815167ffffffffffffffff81111562000582576200058162000bdf565b5b808601620005918982620007ba565b855260208501945060208401935050506001810190506200055b565b5050509392505050565b6000620005ce620005c88462000980565b620008f9565b905082815260208101848484011115620005ed57620005ec62000bf3565b5b620005fa84828562000a33565b509392505050565b600081519050620006138162000c13565b92915050565b600082601f83011262000631576200063062000bdf565b5b8151620006438482602086016200047f565b91505092915050565b600082601f83011262000664576200066362000bdf565b5b8151620006768482602086016200051b565b91505092915050565b600081519050620006908162000c2d565b92915050565b600081519050620006a78162000c47565b92915050565b600081519050620006be8162000c61565b92915050565b600082601f830112620006dc57620006db62000bdf565b5b8151620006ee848260208601620005b7565b91505092915050565b60006080828403121562000710576200070f62000be4565b5b6200071c6080620008f9565b9050600082015167ffffffffffffffff8111156200073f576200073e62000be9565b5b6200074d84828501620006c4565b6000830152506020620007638482850162000848565b602083015250604062000779848285016200067f565b604083015250606082015167ffffffffffffffff811115620007a0576200079f62000be9565b5b620007ae848285016200064c565b60608301525092915050565b600060608284031215620007d357620007d262000be4565b5b620007df6060620008f9565b90506000620007f18482850162000602565b600083015250602082015167ffffffffffffffff81111562000818576200081762000be9565b5b6200082684828501620006c4565b60208301525060406200083c8482850162000696565b60408301525092915050565b600081519050620008598162000c7b565b92915050565b6000806000606084860312156200087b576200087a62000bfd565b5b60006200088b86828701620006ad565b935050602084015167ffffffffffffffff811115620008af57620008ae62000bf8565b5b620008bd86828701620006c4565b925050604084015167ffffffffffffffff811115620008e157620008e062000bf8565b5b620008ef8682870162000619565b9150509250925092565b60006200090562000918565b905062000913828262000a9f565b919050565b6000604051905090565b600067ffffffffffffffff82111562000940576200093f62000bb0565b5b602082029050602081019050919050565b600067ffffffffffffffff8211156200096f576200096e62000bb0565b5b602082029050602081019050919050565b600067ffffffffffffffff8211156200099e576200099d62000bb0565b5b620009a98262000c02565b9050602081019050919050565b6000620009c38262000a09565b9050919050565b60008115159050919050565b600081600f0b9050919050565b6000819050919050565b60006fffffffffffffffffffffffffffffffff82169050919050565b600073ffffffffffffffffffffffffffffffffffffffff82169050919050565b6000819050919050565b60005b8381101562000a5357808201518184015260208101905062000a36565b8381111562000a63576000848401525b50505050565b6000600282049050600182168062000a8257607f821691505b6020821081141562000a995762000a9862000b52565b5b50919050565b62000aaa8262000c02565b810181811067ffffffffffffffff8211171562000acc5762000acb62000bb0565b5b80604052505050565b600062000ae28262000a29565b91507fffffffffffffffffffffffffffffffffffffffffffffffffffffffffffffffff82141562000b185762000b1762000b23565b5b600182019050919050565b7f4e487b7100000000000000000000000000000000000000000000000000000000600052601160045260246000fd5b7f4e487b7100000000000000000000000000000000000000000000000000000000600052602260045260246000fd5b7f4e487b7100000000000000000000000000000000000000000000000000000000600052603260045260246000fd5b7f4e487b7100000000000000000000000000000000000000000000000000000000600052604160045260246000fd5b600080fd5b600080fd5b600080fd5b600080fd5b600080fd5b600080fd5b600080fd5b6000601f19601f8301169050919050565b62000c1e81620009b6565b811462000c2a57600080fd5b50565b62000c3881620009ca565b811462000c4457600080fd5b50565b62000c5281620009d6565b811462000c5e57600080fd5b50565b62000c6c81620009e3565b811462000c7857600080fd5b50565b62000c8681620009ed565b811462000c9257600080fd5b50565b6108798062000ca56000396000f3fe608060405234801561001057600080fd5b50600436106100885760003560e01c8063a39e22e91161005b578063a39e22e91461013b578063ab9dbd071461016b578063e852ac3d14610189578063f82f3cd3146101b957610088565b806317d7de7c1461008d57806329a6ca32146100ab5780632c40a7e5146100db578063813198411461010b575b600080fd5b6100956101e9565b6040516100a2919061067f565b60405180910390f35b6100c560048036038101906100c09190610522565b61027b565b6040516100d2919061067f565b60405180910390f35b6100f560048036038101906100f0919061054f565b610332565b604051610102919061067f565b60405180910390f35b6101256004803603810190610120919061054f565b6103ec565b6040516101329190610649565b60405180910390f35b61015560048036038101906101509190610522565b61042b565b60405161016291906106a1565b60405180910390f35b610173610476565b6040516101809190610664565b60405180910390f35b6101a3600480360381019061019e9190610522565b61047f565b6040516101b0919061062e565b60405180910390f35b6101d360048036038101906101ce919061054f565b6104bb565b6040516101e09190610613565b60405180910390f35b6060600180546101f890610786565b80601f016020809104026020016040519081016040528092919081815260200182805461022490610786565b80156102715780601f1061024657610100808354040283529160200191610271565b820191906000526020600020905b81548152906001019060200180831161025457829003601f168201915b5050505050905090565b606060028281548110610291576102906107e7565b5b906000526020600020906002020160000180546102ad90610786565b80601f01602080910402602001604051908101604052809291908181526020018280546102d990610786565b80156103265780601f106102fb57610100808354040283529160200191610326565b820191906000526020600020905b81548152906001019060200180831161030957829003601f168201915b50505050509050919050565b6060600360008481526020019081526020016000206000838152602001908152602001600020600101805461036690610786565b80601f016020809104026020016040519081016040528092919081815260200182805461039290610786565b80156103df5780601f106103b4576101008083540402835291602001916103df565b820191906000526020600020905b8154815290600101906020018083116103c257829003601f168201915b5050505050905092915050565b600060036000848152602001908152602001600020600083815260200190815260200160002060020160009054906101000a9004600f0b905092915050565b600060028281548110610441576104406107e7565b5b906000526020600020906002020160010160009054906101000a90046fffffffffffffffffffffffffffffffff169050919050565b60008054905090565b600060028281548110610495576104946107e7565b5b906000526020600020906002020160010160109054906101000a900460ff169050919050565b600060036000848152602001908152602001600020600083815260200190815260200160002060000160009054906101000a900473ffffffffffffffffffffffffffffffffffffffff16905092915050565b60008135905061051c8161082c565b92915050565b60006020828403121561053857610537610816565b5b60006105468482850161050d565b91505092915050565b6000806040838503121561056657610565610816565b5b60006105748582860161050d565b92505060206105858582860161050d565b9150509250929050565b610598816106d8565b82525050565b6105a7816106ea565b82525050565b6105b6816106f6565b82525050565b6105c581610703565b82525050565b60006105d6826106bc565b6105e081856106c7565b93506105f0818560208601610753565b6105f98161081b565b840191505092915050565b61060d8161070d565b82525050565b6000602082019050610628600083018461058f565b92915050565b6000602082019050610643600083018461059e565b92915050565b600060208201905061065e60008301846105ad565b92915050565b600060208201905061067960008301846105bc565b92915050565b6000602082019050818103600083015261069981846105cb565b905092915050565b60006020820190506106b66000830184610604565b92915050565b600081519050919050565b600082825260208201905092915050565b60006106e382610729565b9050919050565b60008115159050919050565b600081600f0b9050919050565b6000819050919050565b60006fffffffffffffffffffffffffffffffff82169050919050565b600073ffffffffffffffffffffffffffffffffffffffff82169050919050565b6000819050919050565b60005b83811015610771578082015181840152602081019050610756565b83811115610780576000848401525b50505050565b6000600282049050600182168061079e57607f821691505b602082108114156107b2576107b16107b8565b5b50919050565b7f4e487b7100000000000000000000000000000000000000000000000000000000600052602260045260246000fd5b7f4e487b7100000000000000000000000000000000000000000000000000000000600052603260045260246000fd5b600080fd5b6000601f19601f8301169050919050565b61083581610749565b811461084057600080fd5b5056fea26469706673582212204a8c3c14501d9a77ba559944f69f49472c6d1fa537b901e772919f21111559c364736f6c63430008070033",
  "linkReferences": {},
  "deployedLinkReferences": {}
}