{
  "_format": "hh-sol-artifact-1",
  "contractName": "Greeter",
  "sourceName": "contracts/Greeter.sol",
  "abi": [
    {
      "inputs": [
        {
          "components": [
            {
              "internalType": "string",
              "name": "name",
              "type": "string"
            }
          ],
          "internalType": "struct Greeter.MyStruct[]",
          "name": "myStr",
          "type": "tuple[]"
        },
        {
          "internalType": "int256",
          "name": "myArgNum",
          "type": "int256"
        },
        {
          "internalType": "string",
          "name": "mySecondStr",
          "type": "string"
        }
      ],
      "stateMutability": "nonpayable",
      "type": "constructor"
    },
    {
      "inputs": [],
      "name": "greet",
      "outputs": [
        {
          "internalType": "string",
          "name": "",
          "type": "string"
        }
      ],
      "stateMutability": "view",
      "type": "function"
    },
    {
      "inputs": [],
      "name": "greetNum",
      "outputs": [
        {
          "internalType": "int256",
          "name": "",
          "type": "int256"
        }
      ],
      "stateMutability": "view",
      "type": "function"
    },
    {
      "inputs": [],
      "name": "greetSecond",
      "outputs": [
        {
          "internalType": "string",
          "name": "",
          "type": "string"
        }
      ],
      "stateMutability": "view",
      "type": "function"
    }
  ],
  "bytecode": "0x60806040523480156200001157600080fd5b506040516200092d3803806200092d833981810160405281019062000037919062000318565b826001815181106200004e576200004d6200051b565b5b602002602001015160008082015181600001908051906020019062000075929190620000a2565b5090505081600181905550806002908051906020019062000098929190620000a2565b50505050620005c7565b828054620000b09062000480565b90600052602060002090601f016020900481019282620000d4576000855562000120565b82601f10620000ef57805160ff191683800117855562000120565b8280016001018555821562000120579182015b828111156200011f57825182559160200191906001019062000102565b5b5090506200012f919062000133565b5090565b5b808211156200014e57600081600090555060010162000134565b5090565b6000620001696200016384620003db565b620003b2565b905080838252602082019050828560208602820111156200018f576200018e62000588565b5b60005b85811015620001e457815167ffffffffffffffff811115620001b957620001b862000579565b5b808601620001c88982620002b6565b8552602085019450602084019350505060018101905062000192565b5050509392505050565b600062000205620001ff846200040a565b620003b2565b9050828152602081018484840111156200022457620002236200058d565b5b620002318482856200044a565b509392505050565b600082601f83011262000251576200025062000579565b5b81516200026384826020860162000152565b91505092915050565b6000815190506200027d81620005ad565b92915050565b600082601f8301126200029b576200029a62000579565b5b8151620002ad848260208601620001ee565b91505092915050565b600060208284031215620002cf57620002ce6200057e565b5b620002db6020620003b2565b9050600082015167ffffffffffffffff811115620002fe57620002fd62000583565b5b6200030c8482850162000283565b60008301525092915050565b60008060006060848603121562000334576200033362000597565b5b600084015167ffffffffffffffff81111562000355576200035462000592565b5b620003638682870162000239565b935050602062000376868287016200026c565b925050604084015167ffffffffffffffff8111156200039a576200039962000592565b5b620003a88682870162000283565b9150509250925092565b6000620003be620003d1565b9050620003cc8282620004b6565b919050565b6000604051905090565b600067ffffffffffffffff821115620003f957620003f86200054a565b5b602082029050602081019050919050565b600067ffffffffffffffff8211156200042857620004276200054a565b5b62000433826200059c565b9050602081019050919050565b6000819050919050565b60005b838110156200046a5780820151818401526020810190506200044d565b838111156200047a576000848401525b50505050565b600060028204905060018216806200049957607f821691505b60208210811415620004b057620004af620004ec565b5b50919050565b620004c1826200059c565b810181811067ffffffffffffffff82111715620004e357620004e26200054a565b5b80604052505050565b7f4e487b7100000000000000000000000000000000000000000000000000000000600052602260045260246000fd5b7f4e487b7100000000000000000000000000000000000000000000000000000000600052603260045260246000fd5b7f4e487b7100000000000000000000000000000000000000000000000000000000600052604160045260246000fd5b600080fd5b600080fd5b600080fd5b600080fd5b600080fd5b600080fd5b600080fd5b6000601f19601f8301169050919050565b620005b88162000440565b8114620005c457600080fd5b50565b61035680620005d76000396000f3fe608060405234801561001057600080fd5b50600436106100415760003560e01c806388c43be314610046578063935e341114610064578063cfae321714610082575b600080fd5b61004e6100a0565b60405161005b9190610233565b60405180910390f35b61006c610132565b6040516100799190610218565b60405180910390f35b61008a61013c565b6040516100979190610233565b60405180910390f35b6060600280546100af906102ae565b80601f01602080910402602001604051908101604052809291908181526020018280546100db906102ae565b80156101285780601f106100fd57610100808354040283529160200191610128565b820191906000526020600020905b81548152906001019060200180831161010b57829003601f168201915b5050505050905090565b6000600154905090565b606060008001805461014d906102ae565b80601f0160208091040260200160405190810160405280929190818152602001828054610179906102ae565b80156101c65780601f1061019b576101008083540402835291602001916101c6565b820191906000526020600020905b8154815290600101906020018083116101a957829003601f168201915b5050505050905090565b6101d981610271565b82525050565b60006101ea82610255565b6101f48185610260565b935061020481856020860161027b565b61020d8161030f565b840191505092915050565b600060208201905061022d60008301846101d0565b92915050565b6000602082019050818103600083015261024d81846101df565b905092915050565b600081519050919050565b600082825260208201905092915050565b6000819050919050565b60005b8381101561029957808201518184015260208101905061027e565b838111156102a8576000848401525b50505050565b600060028204905060018216806102c657607f821691505b602082108114156102da576102d96102e0565b5b50919050565b7f4e487b7100000000000000000000000000000000000000000000000000000000600052602260045260246000fd5b6000601f19601f830116905091905056fea2646970667358221220c5ab5e9ca849f2d75594ad9b5f3075bbf6047be03d5bfdb29bb0956f00adb62e64736f6c63430008070033",
  "linkReferences": {},
  "deployedLinkReferences": {}
}