{
  "_format": "hh-sol-artifact-1",
  "contractName": "Greeter",
  "sourceName": "contracts/Greeter.sol",
  "abi": [
    {
      "inputs": [
        {
          "components": [
            {
              "internalType": "string",
              "name": "name",
              "type": "string"
            }
          ],
          "internalType": "struct Greeter.MyStruct[]",
          "name": "myStr",
          "type": "tuple[]"
        },
        {
          "internalType": "int256",
          "name": "mojBroj",
          "type": "int256"
        },
        {
          "internalType": "string",
          "name": "mojeDrugoIme",
          "type": "string"
        }
      ],
      "stateMutability": "nonpayable",
      "type": "constructor"
    },
    {
      "inputs": [],
      "name": "greet",
      "outputs": [
        {
          "internalType": "string",
          "name": "",
          "type": "string"
        }
      ],
      "stateMutability": "view",
      "type": "function"
    },
    {
      "inputs": [],
      "name": "greetNum",
      "outputs": [
        {
          "internalType": "int256",
          "name": "",
          "type": "int256"
        }
      ],
      "stateMutability": "view",
      "type": "function"
    },
    {
      "inputs": [],
      "name": "greetSecond",
      "outputs": [
        {
          "internalType": "string",
          "name": "",
          "type": "string"
        }
      ],
      "stateMutability": "view",
      "type": "function"
    },
    {
      "inputs": [
        {
          "internalType": "string",
          "name": "_greeting",
          "type": "string"
        }
      ],
      "name": "setGreeting",
      "outputs": [],
      "stateMutability": "nonpayable",
      "type": "function"
    }
  ],
  "bytecode": "0x60806040523480156200001157600080fd5b506040516200103938038062001039833981810160405281019062000037919062000439565b620000896040518060600160405280602281526020016200101760229139846001815181106200006c576200006b620006d4565b5b602002602001015160000151620000f460201b620002c21760201c565b82600181518110620000a0576200009f620006d4565b5b6020026020010151600080820151816000019080519060200190620000c7929190620001c3565b50905050816001819055508060029080519060200190620000ea929190620001c3565b5050505062000780565b6200019682826040516024016200010d92919062000514565b6040516020818303038152906040527f4b5c4277000000000000000000000000000000000000000000000000000000007bffffffffffffffffffffffffffffffffffffffffffffffffffffffff19166020820180517bffffffffffffffffffffffffffffffffffffffffffffffffffffffff83818316178352505050506200019a60201b60201c565b5050565b60008151905060006a636f6e736f6c652e6c6f679050602083016000808483855afa5050505050565b828054620001d19062000639565b90600052602060002090601f016020900481019282620001f5576000855562000241565b82601f106200021057805160ff191683800117855562000241565b8280016001018555821562000241579182015b828111156200024057825182559160200191906001019062000223565b5b50905062000250919062000254565b5090565b5b808211156200026f57600081600090555060010162000255565b5090565b60006200028a620002848462000578565b6200054f565b90508083825260208201905082856020860282011115620002b057620002af62000741565b5b60005b858110156200030557815167ffffffffffffffff811115620002da57620002d962000732565b5b808601620002e98982620003d7565b85526020850194506020840193505050600181019050620002b3565b5050509392505050565b6000620003266200032084620005a7565b6200054f565b90508281526020810184848401111562000345576200034462000746565b5b6200035284828562000603565b509392505050565b600082601f83011262000372576200037162000732565b5b81516200038484826020860162000273565b91505092915050565b6000815190506200039e8162000766565b92915050565b600082601f830112620003bc57620003bb62000732565b5b8151620003ce8482602086016200030f565b91505092915050565b600060208284031215620003f057620003ef62000737565b5b620003fc60206200054f565b9050600082015167ffffffffffffffff8111156200041f576200041e6200073c565b5b6200042d84828501620003a4565b60008301525092915050565b60008060006060848603121562000455576200045462000750565b5b600084015167ffffffffffffffff8111156200047657620004756200074b565b5b62000484868287016200035a565b935050602062000497868287016200038d565b925050604084015167ffffffffffffffff811115620004bb57620004ba6200074b565b5b620004c986828701620003a4565b9150509250925092565b6000620004e082620005dd565b620004ec8185620005e8565b9350620004fe81856020860162000603565b620005098162000755565b840191505092915050565b60006040820190508181036000830152620005308185620004d3565b90508181036020830152620005468184620004d3565b90509392505050565b60006200055b6200056e565b90506200056982826200066f565b919050565b6000604051905090565b600067ffffffffffffffff82111562000596576200059562000703565b5b602082029050602081019050919050565b600067ffffffffffffffff821115620005c557620005c462000703565b5b620005d08262000755565b9050602081019050919050565b600081519050919050565b600082825260208201905092915050565b6000819050919050565b60005b838110156200062357808201518184015260208101905062000606565b8381111562000633576000848401525b50505050565b600060028204905060018216806200065257607f821691505b60208210811415620006695762000668620006a5565b5b50919050565b6200067a8262000755565b810181811067ffffffffffffffff821117156200069c576200069b62000703565b5b80604052505050565b7f4e487b7100000000000000000000000000000000000000000000000000000000600052602260045260246000fd5b7f4e487b7100000000000000000000000000000000000000000000000000000000600052603260045260246000fd5b7f4e487b7100000000000000000000000000000000000000000000000000000000600052604160045260246000fd5b600080fd5b600080fd5b600080fd5b600080fd5b600080fd5b600080fd5b600080fd5b6000601f19601f8301169050919050565b6200077181620005f9565b81146200077d57600080fd5b50565b61088780620007906000396000f3fe608060405234801561001057600080fd5b506004361061004c5760003560e01c806388c43be314610051578063935e34111461006f578063a41368621461008d578063cfae3217146100a9575b600080fd5b6100596100c7565b60405161006691906105e5565b60405180910390f35b610077610159565b60405161008491906105ca565b60405180910390f35b6100a760048036038101906100a29190610539565b610163565b005b6100b161022e565b6040516100be91906105e5565b60405180910390f35b6060600280546100d690610748565b80601f016020809104026020016040519081016040528092919081815260200182805461010290610748565b801561014f5780601f106101245761010080835404028352916020019161014f565b820191906000526020600020905b81548152906001019060200180831161013257829003601f168201915b5050505050905090565b6000600154905090565b61021260405180606001604052806023815260200161082f6023913960008001805461018e90610748565b80601f01602080910402602001604051908101604052809291908181526020018280546101ba90610748565b80156102075780601f106101dc57610100808354040283529160200191610207565b820191906000526020600020905b8154815290600101906020018083116101ea57829003601f168201915b50505050508361035e565b8060008001908051906020019061022a929190610426565b5050565b606060008001805461023f90610748565b80601f016020809104026020016040519081016040528092919081815260200182805461026b90610748565b80156102b85780601f1061028d576101008083540402835291602001916102b8565b820191906000526020600020905b81548152906001019060200180831161029b57829003601f168201915b5050505050905090565b61035a82826040516024016102d8929190610607565b6040516020818303038152906040527f4b5c4277000000000000000000000000000000000000000000000000000000007bffffffffffffffffffffffffffffffffffffffffffffffffffffffff19166020820180517bffffffffffffffffffffffffffffffffffffffffffffffffffffffff83818316178352505050506103fd565b5050565b6103f88383836040516024016103769392919061063e565b6040516020818303038152906040527f2ced7cef000000000000000000000000000000000000000000000000000000007bffffffffffffffffffffffffffffffffffffffffffffffffffffffff19166020820180517bffffffffffffffffffffffffffffffffffffffffffffffffffffffff83818316178352505050506103fd565b505050565b60008151905060006a636f6e736f6c652e6c6f679050602083016000808483855afa5050505050565b82805461043290610748565b90600052602060002090601f016020900481019282610454576000855561049b565b82601f1061046d57805160ff191683800117855561049b565b8280016001018555821561049b579182015b8281111561049a57825182559160200191906001019061047f565b5b5090506104a891906104ac565b5090565b5b808211156104c55760008160009055506001016104ad565b5090565b60006104dc6104d7846106af565b61068a565b9050828152602081018484840111156104f8576104f761080e565b5b610503848285610706565b509392505050565b600082601f8301126105205761051f610809565b5b81356105308482602086016104c9565b91505092915050565b60006020828403121561054f5761054e610818565b5b600082013567ffffffffffffffff81111561056d5761056c610813565b5b6105798482850161050b565b91505092915050565b61058b816106fc565b82525050565b600061059c826106e0565b6105a681856106eb565b93506105b6818560208601610715565b6105bf8161081d565b840191505092915050565b60006020820190506105df6000830184610582565b92915050565b600060208201905081810360008301526105ff8184610591565b905092915050565b600060408201905081810360008301526106218185610591565b905081810360208301526106358184610591565b90509392505050565b600060608201905081810360008301526106588186610591565b9050818103602083015261066c8185610591565b905081810360408301526106808184610591565b9050949350505050565b60006106946106a5565b90506106a0828261077a565b919050565b6000604051905090565b600067ffffffffffffffff8211156106ca576106c96107da565b5b6106d38261081d565b9050602081019050919050565b600081519050919050565b600082825260208201905092915050565b6000819050919050565b82818337600083830152505050565b60005b83811015610733578082015181840152602081019050610718565b83811115610742576000848401525b50505050565b6000600282049050600182168061076057607f821691505b60208210811415610774576107736107ab565b5b50919050565b6107838261081d565b810181811067ffffffffffffffff821117156107a2576107a16107da565b5b80604052505050565b7f4e487b7100000000000000000000000000000000000000000000000000000000600052602260045260246000fd5b7f4e487b7100000000000000000000000000000000000000000000000000000000600052604160045260246000fd5b600080fd5b600080fd5b600080fd5b600080fd5b6000601f19601f830116905091905056fe4368616e67696e67206772656574696e672066726f6d202725732720746f2027257327a2646970667358221220aee07b6c3912546335a5093149165a5ec82962994c36f4129531278d34b0dc0964736f6c634300080700334465706c6f79696e67206120477265657465722077697468206772656574696e673a",
  "linkReferences": {},
  "deployedLinkReferences": {}
}